{
  "contractName": "Voting",
  "abi": [
    {
      "inputs": [],
      "stateMutability": "nonpayable",
      "type": "constructor"
    },
    {
      "anonymous": false,
      "inputs": [],
      "name": "NewVotingSystem",
      "type": "event"
    },
    {
      "anonymous": false,
      "inputs": [
        {
          "indexed": true,
          "internalType": "address",
          "name": "previousOwner",
          "type": "address"
        },
        {
          "indexed": true,
          "internalType": "address",
          "name": "newOwner",
          "type": "address"
        }
      ],
      "name": "OwnershipTransferred",
      "type": "event"
    },
    {
      "anonymous": false,
      "inputs": [
        {
          "indexed": false,
          "internalType": "uint256",
          "name": "proposalId",
          "type": "uint256"
        }
      ],
      "name": "ProposalRegistered",
      "type": "event"
    },
    {
      "anonymous": false,
      "inputs": [],
      "name": "ProposalsRegistrationEnded",
      "type": "event"
    },
    {
      "anonymous": false,
      "inputs": [],
      "name": "ProposalsRegistrationStarted",
      "type": "event"
    },
    {
      "anonymous": false,
      "inputs": [
        {
          "indexed": false,
          "internalType": "address",
          "name": "voter",
          "type": "address"
        },
        {
          "indexed": false,
          "internalType": "uint256",
          "name": "proposalId",
          "type": "uint256"
        }
      ],
      "name": "Voted",
      "type": "event"
    },
    {
      "anonymous": false,
      "inputs": [
        {
          "indexed": false,
          "internalType": "address",
          "name": "voterAddress",
          "type": "address"
        }
      ],
      "name": "VoterRegistered",
      "type": "event"
    },
    {
      "anonymous": false,
      "inputs": [
        {
          "indexed": false,
          "internalType": "uint8[]",
          "name": "_winningProposals",
          "type": "uint8[]"
        }
      ],
      "name": "VotesTallied",
      "type": "event"
    },
    {
      "anonymous": false,
      "inputs": [],
      "name": "VotingSessionEnded",
      "type": "event"
    },
    {
      "anonymous": false,
      "inputs": [],
      "name": "VotingSessionStarted",
      "type": "event"
    },
    {
      "anonymous": false,
      "inputs": [
        {
          "indexed": false,
          "internalType": "enum Voting.WorkflowStatus",
          "name": "previousStatus",
          "type": "uint8"
        },
        {
          "indexed": false,
          "internalType": "enum Voting.WorkflowStatus",
          "name": "newStatus",
          "type": "uint8"
        }
      ],
      "name": "WorkflowStatusChange",
      "type": "event"
    },
    {
      "inputs": [],
      "name": "owner",
      "outputs": [
        {
          "internalType": "address",
          "name": "",
          "type": "address"
        }
      ],
      "stateMutability": "view",
      "type": "function"
    },
    {
      "inputs": [
        {
          "internalType": "uint256",
          "name": "",
          "type": "uint256"
        }
      ],
      "name": "proposals",
      "outputs": [
        {
          "internalType": "uint8",
          "name": "id",
          "type": "uint8"
        },
        {
          "internalType": "address",
          "name": "owner",
          "type": "address"
        },
        {
          "internalType": "string",
          "name": "description",
          "type": "string"
        },
        {
          "internalType": "uint256",
          "name": "voteCount",
          "type": "uint256"
        }
      ],
      "stateMutability": "view",
      "type": "function"
    },
    {
      "inputs": [],
      "name": "renounceOwnership",
      "outputs": [],
      "stateMutability": "nonpayable",
      "type": "function"
    },
    {
      "inputs": [],
      "name": "status",
      "outputs": [
        {
          "internalType": "enum Voting.WorkflowStatus",
          "name": "",
          "type": "uint8"
        }
      ],
      "stateMutability": "view",
      "type": "function"
    },
    {
      "inputs": [
        {
          "internalType": "address",
          "name": "newOwner",
          "type": "address"
        }
      ],
      "name": "transferOwnership",
      "outputs": [],
      "stateMutability": "nonpayable",
      "type": "function"
    },
    {
      "inputs": [
        {
          "internalType": "address",
          "name": "",
          "type": "address"
        }
      ],
      "name": "whiteList",
      "outputs": [
        {
          "internalType": "bool",
          "name": "isRegistered",
          "type": "bool"
        },
        {
          "internalType": "address",
          "name": "_address",
          "type": "address"
        },
        {
          "internalType": "bool",
          "name": "hasVoted",
          "type": "bool"
        },
        {
          "internalType": "uint256",
          "name": "votedProposalId",
          "type": "uint256"
        }
      ],
      "stateMutability": "view",
      "type": "function"
    },
    {
      "inputs": [
        {
          "internalType": "uint256",
          "name": "",
          "type": "uint256"
        }
      ],
      "name": "winningProposalId",
      "outputs": [
        {
          "internalType": "uint8",
          "name": "",
          "type": "uint8"
        }
      ],
      "stateMutability": "view",
      "type": "function"
    },
    {
      "inputs": [],
      "name": "getWinningProposal",
      "outputs": [
        {
          "components": [
            {
              "internalType": "uint8",
              "name": "id",
              "type": "uint8"
            },
            {
              "internalType": "address",
              "name": "owner",
              "type": "address"
            },
            {
              "internalType": "string",
              "name": "description",
              "type": "string"
            },
            {
              "internalType": "uint256",
              "name": "voteCount",
              "type": "uint256"
            }
          ],
          "internalType": "struct Voting.Proposal",
          "name": "proposal",
          "type": "tuple"
        }
      ],
      "stateMutability": "view",
      "type": "function"
    },
    {
      "inputs": [
        {
          "internalType": "address",
          "name": "_address",
          "type": "address"
        }
      ],
      "name": "addVoter",
      "outputs": [],
      "stateMutability": "nonpayable",
      "type": "function"
    },
    {
      "inputs": [
        {
          "internalType": "address",
          "name": "_address",
          "type": "address"
        }
      ],
      "name": "deleteVoter",
      "outputs": [],
      "stateMutability": "nonpayable",
      "type": "function"
    },
    {
      "inputs": [],
      "name": "startProposalRegistration",
      "outputs": [],
      "stateMutability": "nonpayable",
      "type": "function"
    },
    {
      "inputs": [],
      "name": "endProposalRegistration",
      "outputs": [],
      "stateMutability": "nonpayable",
      "type": "function"
    },
    {
      "inputs": [],
      "name": "startVotingSession",
      "outputs": [],
      "stateMutability": "nonpayable",
      "type": "function"
    },
    {
      "inputs": [],
      "name": "endVotingSession",
      "outputs": [],
      "stateMutability": "nonpayable",
      "type": "function"
    },
    {
      "inputs": [
        {
          "internalType": "string",
          "name": "_description",
          "type": "string"
        }
      ],
      "name": "addProposal",
      "outputs": [],
      "stateMutability": "nonpayable",
      "type": "function"
    },
    {
      "inputs": [
        {
          "internalType": "uint256",
          "name": "_id",
          "type": "uint256"
        }
      ],
      "name": "deleteProposal",
      "outputs": [],
      "stateMutability": "nonpayable",
      "type": "function"
    },
    {
      "inputs": [
        {
          "internalType": "uint256",
          "name": "_id",
          "type": "uint256"
        }
      ],
      "name": "deleteProposalAdmin",
      "outputs": [],
      "stateMutability": "nonpayable",
      "type": "function"
    },
    {
      "inputs": [
        {
          "internalType": "uint256",
          "name": "_id",
          "type": "uint256"
        }
      ],
      "name": "vote",
      "outputs": [],
      "stateMutability": "nonpayable",
      "type": "function"
    },
    {
      "inputs": [],
      "name": "count",
      "outputs": [],
      "stateMutability": "nonpayable",
      "type": "function"
    },
    {
      "inputs": [],
      "name": "getEnum",
      "outputs": [
        {
          "internalType": "enum Voting.WorkflowStatus",
          "name": "",
          "type": "uint8"
        }
      ],
      "stateMutability": "view",
      "type": "function"
    }
  ],
  "bytecode": "0x608060405234801561001057600080fd5b5060006100216100f060201b60201c565b9050806000806101000a81548173ffffffffffffffffffffffffffffffffffffffff021916908373ffffffffffffffffffffffffffffffffffffffff1602179055508073ffffffffffffffffffffffffffffffffffffffff16600073ffffffffffffffffffffffffffffffffffffffff167f8be0079c531659141344cd1fd0a4f28419497f9722a3daafe3b4186f6b6457e060405160405180910390a3507f28c5e727295d809da653948416bdc4fe30913878a5f1332ded39bc4730d10c5660405160405180910390a16100f8565b600033905090565b6130d280620001086000396000f3fe608060405234801561001057600080fd5b506004361061012c5760003560e01c806388e1c739116100ad578063e85a8f2a11610071578063e85a8f2a146102d5578063ee74c678146102df578063f0ebce5a146102e9578063f2fde38b14610307578063f4ab9adf146103235761012c565b806388e1c739146102435780638da5cb5b1461025f578063a51346201461027d578063a7bfab161461029b578063d903170a146102a55761012c565b80632d5de3c9116100f45780632d5de3c9146101b25780632fdae3c5146101ce578063372c12b1146101ea578063715018a61461021d5780638259d553146102275761012c565b80630121b93f14610131578063013cf08b1461014d57806306661abd146101805780630f7e28381461018a578063200d2ed214610194575b600080fd5b61014b60048036038101906101469190611e2d565b61033f565b005b61016760048036038101906101629190611e2d565b6104ee565b6040516101779493929190612925565b60405180910390f35b6101886105e3565b005b610192610912565b005b61019c610a2c565b6040516101a991906128b2565b60405180910390f35b6101cc60048036038101906101c79190611e2d565b610a3f565b005b6101e860048036038101906101e39190611dec565b610b73565b005b61020460048036038101906101ff9190611dc3565b610d87565b604051610214949392919061286d565b60405180910390f35b610225610df1565b005b610241600480360381019061023c9190611e2d565b610f77565b005b61025d60048036038101906102589190611dc3565b6110b1565b005b610267611215565b6040516102749190612807565b60405180910390f35b61028561123e565b60405161029291906128cd565b60405180910390f35b6102a36113b8565b005b6102bf60048036038101906102ba9190611e2d565b6114d2565b6040516102cc919061290a565b60405180910390f35b6102dd611506565b005b6102e7611620565b005b6102f161173a565b6040516102fe91906128b2565b60405180910390f35b610321600480360381019061031c9190611dc3565b61173f565b005b61033d60048036038101906103389190611dc3565b61194a565b005b60011515600360003373ffffffffffffffffffffffffffffffffffffffff1673ffffffffffffffffffffffffffffffffffffffff16815260200190815260200160002060000160009054906101000a900460ff1615151461039f57600080fd5b600360058111156103ac57fe5b600560009054906101000a900460ff1660058111156103c757fe5b146103d157600080fd5b60001515600360003373ffffffffffffffffffffffffffffffffffffffff1673ffffffffffffffffffffffffffffffffffffffff16815260200190815260200160002060000160159054906101000a900460ff1615151461043157600080fd5b6001600360003373ffffffffffffffffffffffffffffffffffffffff1673ffffffffffffffffffffffffffffffffffffffff16815260200190815260200160002060000160156101000a81548160ff02191690831515021790555060046000828152602001908152602001600020600201600081548092919060010191905055507f4d99b957a2bc29a30ebd96a7be8e68fe50a3c701db28a91436490b7d53870ca433826040516104e3929190612822565b60405180910390a150565b60046020528060005260406000206000915090508060000160009054906101000a900460ff16908060000160019054906101000a900473ffffffffffffffffffffffffffffffffffffffff1690806001018054600181600116156101000203166002900480601f0160208091040260200160405190810160405280929190818152602001828054600181600116156101000203166002900480156105d35780601f106105a8576101008083540402835291602001916105d3565b820191906000526020600020905b8154815290600101906020018083116105b657829003601f168201915b5050505050908060020154905084565b6105eb611b95565b73ffffffffffffffffffffffffffffffffffffffff1660008054906101000a900473ffffffffffffffffffffffffffffffffffffffff1673ffffffffffffffffffffffffffffffffffffffff16146106ab576040517f08c379a00000000000000000000000000000000000000000000000000000000081526004018080602001828103825260208152602001807f4f776e61626c653a2063616c6c6572206973206e6f7420746865206f776e657281525060200191505060405180910390fd5b600460058111156106b857fe5b600560009054906101000a900460ff1660058111156106d357fe5b146106dd57600080fd5b600080600080600090505b600260009054906101000a900460ff1660ff16811161090c57600460008281526020019081526020016000206002015483101561080b57600460008281526020019081526020016000206002015492506004600082815260200190815260200160002060000160009054906101000a900460ff169350600182805490501061079f578180548061077457fe5b60019003818190600052602060002090602091828204019190066101000a81549060ff021916905590555b816004600083815260200190815260200160002060000160009054906101000a900460ff1690806001815401808255809150506001900390600052602060002090602091828204019190069091909190916101000a81548160ff021916908360ff160217905550610892565b600460008281526020019081526020016000206002015483141561089157816004600083815260200190815260200160002060000160009054906101000a900460ff1690806001815401808255809150506001900390600052602060002090602091828204019190069091909190916101000a81548160ff021916908360ff1602179055505b5b8160019080546108a3929190611b9d565b5060058060006101000a81548160ff021916908360058111156108c257fe5b02179055507f89d03b5a5b2a99a95181ddefa14f6681dac625f00a78e7eba22da4b6ede5a38060016040516108f7919061284b565b60405180910390a180806001019150506106e8565b50505050565b61091a611b95565b73ffffffffffffffffffffffffffffffffffffffff1660008054906101000a900473ffffffffffffffffffffffffffffffffffffffff1673ffffffffffffffffffffffffffffffffffffffff16146109da576040517f08c379a00000000000000000000000000000000000000000000000000000000081526004018080602001828103825260208152602001807f4f776e61626c653a2063616c6c6572206973206e6f7420746865206f776e657281525060200191505060405180910390fd5b6001600560006101000a81548160ff021916908360058111156109f957fe5b02179055507f344c25562921d075a298d34b6dd1fd00d36ff293974539dfd4a8c625d9f0064c60405160405180910390a1565b600560009054906101000a900460ff1681565b610a47611b95565b73ffffffffffffffffffffffffffffffffffffffff1660008054906101000a900473ffffffffffffffffffffffffffffffffffffffff1673ffffffffffffffffffffffffffffffffffffffff1614610b07576040517f08c379a00000000000000000000000000000000000000000000000000000000081526004018080602001828103825260208152602001807f4f776e61626c653a2063616c6c6572206973206e6f7420746865206f776e657281525060200191505060405180910390fd5b60046000828152602001908152602001600020600080820160006101000a81549060ff02191690556000820160016101000a81549073ffffffffffffffffffffffffffffffffffffffff0219169055600182016000610b669190611bfd565b6002820160009055505050565b60011515600360003373ffffffffffffffffffffffffffffffffffffffff1673ffffffffffffffffffffffffffffffffffffffff16815260200190815260200160002060000160009054906101000a900460ff16151514610bd357600080fd5b60016005811115610be057fe5b600560009054906101000a900460ff166005811115610bfb57fe5b14610c0557600080fd5b60006040518060800160405280600260009054906101000a900460ff1660ff1681526020013373ffffffffffffffffffffffffffffffffffffffff168152602001838152602001600081525090508060046000600260009054906101000a900460ff1660ff16815260200190815260200160002060008201518160000160006101000a81548160ff021916908360ff16021790555060208201518160000160016101000a81548173ffffffffffffffffffffffffffffffffffffffff021916908373ffffffffffffffffffffffffffffffffffffffff1602179055506040820151816001019080519060200190610cfd929190611c45565b50606082015181600201559050507f92e393e9b54e2f801d3ea4beb0c5e71a21cc34a5d34b77d0fb8a3aa1650dc18f600260009054906101000a900460ff16604051610d4991906128ef565b60405180910390a16002600081819054906101000a900460ff168092919060010191906101000a81548160ff021916908360ff160217905550505050565b60036020528060005260406000206000915090508060000160009054906101000a900460ff16908060000160019054906101000a900473ffffffffffffffffffffffffffffffffffffffff16908060000160159054906101000a900460ff16908060010154905084565b610df9611b95565b73ffffffffffffffffffffffffffffffffffffffff1660008054906101000a900473ffffffffffffffffffffffffffffffffffffffff1673ffffffffffffffffffffffffffffffffffffffff1614610eb9576040517f08c379a00000000000000000000000000000000000000000000000000000000081526004018080602001828103825260208152602001807f4f776e61626c653a2063616c6c6572206973206e6f7420746865206f776e657281525060200191505060405180910390fd5b600073ffffffffffffffffffffffffffffffffffffffff1660008054906101000a900473ffffffffffffffffffffffffffffffffffffffff1673ffffffffffffffffffffffffffffffffffffffff167f8be0079c531659141344cd1fd0a4f28419497f9722a3daafe3b4186f6b6457e060405160405180910390a360008060006101000a81548173ffffffffffffffffffffffffffffffffffffffff021916908373ffffffffffffffffffffffffffffffffffffffff160217905550565b60011515600360003373ffffffffffffffffffffffffffffffffffffffff1673ffffffffffffffffffffffffffffffffffffffff16815260200190815260200160002060000160009054906101000a900460ff16151514610fd757600080fd5b3373ffffffffffffffffffffffffffffffffffffffff166004600083815260200190815260200160002060000160019054906101000a900473ffffffffffffffffffffffffffffffffffffffff1673ffffffffffffffffffffffffffffffffffffffff161461104557600080fd5b60046000828152602001908152602001600020600080820160006101000a81549060ff02191690556000820160016101000a81549073ffffffffffffffffffffffffffffffffffffffff02191690556001820160006110a49190611bfd565b6002820160009055505050565b6110b9611b95565b73ffffffffffffffffffffffffffffffffffffffff1660008054906101000a900473ffffffffffffffffffffffffffffffffffffffff1673ffffffffffffffffffffffffffffffffffffffff1614611179576040517f08c379a00000000000000000000000000000000000000000000000000000000081526004018080602001828103825260208152602001807f4f776e61626c653a2063616c6c6572206973206e6f7420746865206f776e657281525060200191505060405180910390fd5b600360008273ffffffffffffffffffffffffffffffffffffffff1673ffffffffffffffffffffffffffffffffffffffff168152602001908152602001600020600080820160006101000a81549060ff02191690556000820160016101000a81549073ffffffffffffffffffffffffffffffffffffffff02191690556000820160156101000a81549060ff02191690556001820160009055505050565b60008060009054906101000a900473ffffffffffffffffffffffffffffffffffffffff16905090565b611246611cd3565b60046000600160008154811061125857fe5b90600052602060002090602091828204019190069054906101000a900460ff1660ff1681526020019081526020016000206040518060800160405290816000820160009054906101000a900460ff1660ff1660ff1681526020016000820160019054906101000a900473ffffffffffffffffffffffffffffffffffffffff1673ffffffffffffffffffffffffffffffffffffffff1673ffffffffffffffffffffffffffffffffffffffff168152602001600182018054600181600116156101000203166002900480601f0160208091040260200160405190810160405280929190818152602001828054600181600116156101000203166002900480156113a05780601f10611375576101008083540402835291602001916113a0565b820191906000526020600020905b81548152906001019060200180831161138357829003601f168201915b50505050508152602001600282015481525050905090565b6113c0611b95565b73ffffffffffffffffffffffffffffffffffffffff1660008054906101000a900473ffffffffffffffffffffffffffffffffffffffff1673ffffffffffffffffffffffffffffffffffffffff1614611480576040517f08c379a00000000000000000000000000000000000000000000000000000000081526004018080602001828103825260208152602001807f4f776e61626c653a2063616c6c6572206973206e6f7420746865206f776e657281525060200191505060405180910390fd5b6004600560006101000a81548160ff0219169083600581111561149f57fe5b02179055507fc379d349a6301baf50fb2f98d829f4ae10b1cdb7c66f4e4d8117302df7b8cd4c60405160405180910390a1565b600181815481106114e257600080fd5b9060005260206000209060209182820401919006915054906101000a900460ff1681565b61150e611b95565b73ffffffffffffffffffffffffffffffffffffffff1660008054906101000a900473ffffffffffffffffffffffffffffffffffffffff1673ffffffffffffffffffffffffffffffffffffffff16146115ce576040517f08c379a00000000000000000000000000000000000000000000000000000000081526004018080602001828103825260208152602001807f4f776e61626c653a2063616c6c6572206973206e6f7420746865206f776e657281525060200191505060405180910390fd5b6002600560006101000a81548160ff021916908360058111156115ed57fe5b02179055507f240cb87b2e4df4c318e72bd714d45a9cad60249e883ff56b1fffd83a4595a8fa60405160405180910390a1565b611628611b95565b73ffffffffffffffffffffffffffffffffffffffff1660008054906101000a900473ffffffffffffffffffffffffffffffffffffffff1673ffffffffffffffffffffffffffffffffffffffff16146116e8576040517f08c379a00000000000000000000000000000000000000000000000000000000081526004018080602001828103825260208152602001807f4f776e61626c653a2063616c6c6572206973206e6f7420746865206f776e657281525060200191505060405180910390fd5b6003600560006101000a81548160ff0219169083600581111561170757fe5b02179055507f1b8e19a458c1bcd88553332c518cc5c4e2d5793e712ee766d4f1c14f672ef1f560405160405180910390a1565b600090565b611747611b95565b73ffffffffffffffffffffffffffffffffffffffff1660008054906101000a900473ffffffffffffffffffffffffffffffffffffffff1673ffffffffffffffffffffffffffffffffffffffff1614611807576040517f08c379a00000000000000000000000000000000000000000000000000000000081526004018080602001828103825260208152602001807f4f776e61626c653a2063616c6c6572206973206e6f7420746865206f776e657281525060200191505060405180910390fd5b600073ffffffffffffffffffffffffffffffffffffffff168173ffffffffffffffffffffffffffffffffffffffff16141561188d576040517f08c379a00000000000000000000000000000000000000000000000000000000081526004018080602001828103825260268152602001806130776026913960400191505060405180910390fd5b8073ffffffffffffffffffffffffffffffffffffffff1660008054906101000a900473ffffffffffffffffffffffffffffffffffffffff1673ffffffffffffffffffffffffffffffffffffffff167f8be0079c531659141344cd1fd0a4f28419497f9722a3daafe3b4186f6b6457e060405160405180910390a3806000806101000a81548173ffffffffffffffffffffffffffffffffffffffff021916908373ffffffffffffffffffffffffffffffffffffffff16021790555050565b611952611b95565b73ffffffffffffffffffffffffffffffffffffffff1660008054906101000a900473ffffffffffffffffffffffffffffffffffffffff1673ffffffffffffffffffffffffffffffffffffffff1614611a12576040517f08c379a00000000000000000000000000000000000000000000000000000000081526004018080602001828103825260208152602001807f4f776e61626c653a2063616c6c6572206973206e6f7420746865206f776e657281525060200191505060405180910390fd5b60006005811115611a1f57fe5b600560009054906101000a900460ff166005811115611a3a57fe5b14611a4457600080fd5b600060405180608001604052806001151581526020018373ffffffffffffffffffffffffffffffffffffffff1681526020016000151581526020016000815250905080600360008473ffffffffffffffffffffffffffffffffffffffff1673ffffffffffffffffffffffffffffffffffffffff16815260200190815260200160002060008201518160000160006101000a81548160ff02191690831515021790555060208201518160000160016101000a81548173ffffffffffffffffffffffffffffffffffffffff021916908373ffffffffffffffffffffffffffffffffffffffff16021790555060408201518160000160156101000a81548160ff021916908315150217905550606082015181600101559050507fb6be2187d059cc2a55fe29e0e503b566e1e0f8c8780096e185429350acffd3dd82604051611b899190612807565b60405180910390a15050565b600033905090565b82805482825590600052602060002090601f01602090048101928215611bec57600052602060002091601f016020900482015b82811115611beb578254825591600101919060010190611bd0565b5b509050611bf99190611d14565b5090565b50805460018160011615610100020316600290046000825580601f10611c235750611c42565b601f016020900490600052602060002090810190611c419190611d14565b5b50565b828054600181600116156101000203166002900490600052602060002090601f016020900481019282611c7b5760008555611cc2565b82601f10611c9457805160ff1916838001178555611cc2565b82800160010185558215611cc2579182015b82811115611cc1578251825591602001919060010190611ca6565b5b509050611ccf9190611d14565b5090565b6040518060800160405280600060ff168152602001600073ffffffffffffffffffffffffffffffffffffffff16815260200160608152602001600081525090565b5b80821115611d2d576000816000905550600101611d15565b5090565b6000611d44611d3f846129a2565b612971565b905082815260208101848484011115611d5c57600080fd5b611d67848285612aff565b509392505050565b600081359050611d7e81613048565b92915050565b600082601f830112611d9557600080fd5b8135611da5848260208601611d31565b91505092915050565b600081359050611dbd8161305f565b92915050565b600060208284031215611dd557600080fd5b6000611de384828501611d6f565b91505092915050565b600060208284031215611dfe57600080fd5b600082013567ffffffffffffffff811115611e1857600080fd5b611e2484828501611d84565b91505092915050565b600060208284031215611e3f57600080fd5b6000611e4d84828501611dae565b91505092915050565b611e5f81612aa5565b82525050565b611e6e81612a3d565b82525050565b611e7d81612a3d565b82525050565b6000611e8e826129e7565b611e9881856129fd565b935083611ea4846129d2565b60006001156121d1575b836001602003820110156121d0578154611ed088611ecb83612b41565b6127e9565b602088019750611ee888611ee383612c5f565b6127e9565b602088019750611f0088611efb83612d7d565b6127e9565b602088019750611f1888611f1383612dcb565b6127e9565b602088019750611f3088611f2b83612de5565b6127e9565b602088019750611f4888611f4383612dff565b6127e9565b602088019750611f6088611f5b83612e19565b6127e9565b602088019750611f7888611f7383612e33565b6127e9565b602088019750611f9088611f8b83612e4d565b6127e9565b602088019750611fa888611fa383612e67565b6127e9565b602088019750611fc088611fbb83612b5b565b6127e9565b602088019750611fd888611fd383612b75565b6127e9565b602088019750611ff088611feb83612b8f565b6127e9565b6020880197506120088861200383612ba9565b6127e9565b6020880197506120208861201b83612bc3565b6127e9565b6020880197506120388861203383612bdd565b6127e9565b6020880197506120508861204b83612bf7565b6127e9565b6020880197506120688861206383612c11565b6127e9565b6020880197506120808861207b83612c2b565b6127e9565b6020880197506120988861209383612c45565b6127e9565b6020880197506120b0886120ab83612c79565b6127e9565b6020880197506120c8886120c383612c93565b6127e9565b6020880197506120e0886120db83612cad565b6127e9565b6020880197506120f8886120f383612cc7565b6127e9565b6020880197506121108861210b83612ce1565b6127e9565b6020880197506121288861212383612cfb565b6127e9565b6020880197506121408861213b83612d15565b6127e9565b6020880197506121588861215383612d2f565b6127e9565b6020880197506121708861216b83612d49565b6127e9565b6020880197506121888861218383612d63565b6127e9565b6020880197506121a08861219b83612d97565b6127e9565b6020880197506121b8886121b383612db1565b6127e9565b60208801975060018301925050602081019050611eae565b5b6001156126bc57815484821015612201576121f4886121ef83612b41565b6127e9565b6020880197506001820191505b848210156122285761221b8861221683612c5f565b6127e9565b6020880197506001820191505b8482101561224f576122428861223d83612d7d565b6127e9565b6020880197506001820191505b84821015612276576122698861226483612dcb565b6127e9565b6020880197506001820191505b8482101561229d576122908861228b83612de5565b6127e9565b6020880197506001820191505b848210156122c4576122b7886122b283612dff565b6127e9565b6020880197506001820191505b848210156122eb576122de886122d983612e19565b6127e9565b6020880197506001820191505b84821015612312576123058861230083612e33565b6127e9565b6020880197506001820191505b848210156123395761232c8861232783612e4d565b6127e9565b6020880197506001820191505b84821015612360576123538861234e83612e67565b6127e9565b6020880197506001820191505b848210156123875761237a8861237583612b5b565b6127e9565b6020880197506001820191505b848210156123ae576123a18861239c83612b75565b6127e9565b6020880197506001820191505b848210156123d5576123c8886123c383612b8f565b6127e9565b6020880197506001820191505b848210156123fc576123ef886123ea83612ba9565b6127e9565b6020880197506001820191505b84821015612423576124168861241183612bc3565b6127e9565b6020880197506001820191505b8482101561244a5761243d8861243883612bdd565b6127e9565b6020880197506001820191505b84821015612471576124648861245f83612bf7565b6127e9565b6020880197506001820191505b848210156124985761248b8861248683612c11565b6127e9565b6020880197506001820191505b848210156124bf576124b2886124ad83612c2b565b6127e9565b6020880197506001820191505b848210156124e6576124d9886124d483612c45565b6127e9565b6020880197506001820191505b8482101561250d57612500886124fb83612c79565b6127e9565b6020880197506001820191505b84821015612534576125278861252283612c93565b6127e9565b6020880197506001820191505b8482101561255b5761254e8861254983612cad565b6127e9565b6020880197506001820191505b84821015612582576125758861257083612cc7565b6127e9565b6020880197506001820191505b848210156125a95761259c8861259783612ce1565b6127e9565b6020880197506001820191505b848210156125d0576125c3886125be83612cfb565b6127e9565b6020880197506001820191505b848210156125f7576125ea886125e583612d15565b6127e9565b6020880197506001820191505b8482101561261e576126118861260c83612d2f565b6127e9565b6020880197506001820191505b84821015612645576126388861263383612d49565b6127e9565b6020880197506001820191505b8482101561266c5761265f8861265a83612d63565b6127e9565b6020880197506001820191505b84821015612693576126868861268183612d97565b6127e9565b6020880197506001820191505b848210156126ba576126ad886126a883612db1565b6127e9565b6020880197506001820191505b505b8694505050505092915050565b6126d281612a4f565b82525050565b6126e181612ab7565b82525050565b60006126f2826129f2565b6126fc8185612a0e565b935061270c818560208601612b0e565b61271581612e83565b840191505092915050565b600061272b826129f2565b6127358185612a1f565b9350612745818560208601612b0e565b61274e81612e83565b840191505092915050565b600060808301600083015161277160008601826127e9565b5060208301516127846020860182611e65565b506040830151848203604086015261279c82826126e7565b91505060608301516127b160608601826127bc565b508091505092915050565b6127c581612a8e565b82525050565b6127d481612a8e565b82525050565b6127e381612aed565b82525050565b6127f281612a98565b82525050565b61280181612a98565b82525050565b600060208201905061281c6000830184611e74565b92915050565b60006040820190506128376000830185611e56565b61284460208301846127cb565b9392505050565b600060208201905081810360008301526128658184611e83565b905092915050565b600060808201905061288260008301876126c9565b61288f6020830186611e74565b61289c60408301856126c9565b6128a960608301846127cb565b95945050505050565b60006020820190506128c760008301846126d8565b92915050565b600060208201905081810360008301526128e78184612759565b905092915050565b600060208201905061290460008301846127da565b92915050565b600060208201905061291f60008301846127f8565b92915050565b600060808201905061293a60008301876127f8565b6129476020830186611e74565b81810360408301526129598185612720565b905061296860608301846127cb565b95945050505050565b6000604051905081810181811067ffffffffffffffff8211171561299857612997612e81565b5b8060405250919050565b600067ffffffffffffffff8211156129bd576129bc612e81565b5b601f19601f8301169050602081019050919050565b60008190508160005260206000209050919050565b600081549050919050565b600081519050919050565b600082825260208201905092915050565b600082825260208201905092915050565b600082825260208201905092915050565b600060ff82169050919050565b6000612a4882612a6e565b9050919050565b60008115159050919050565b6000819050612a6982613034565b919050565b600073ffffffffffffffffffffffffffffffffffffffff82169050919050565b6000819050919050565b600060ff82169050919050565b6000612ab082612ac9565b9050919050565b6000612ac282612a5b565b9050919050565b6000612ad482612adb565b9050919050565b6000612ae682612a6e565b9050919050565b6000612af882612a98565b9050919050565b82818337600083830152505050565b60005b83811015612b2c578082015181840152602081019050612b11565b83811115612b3b576000848401525b50505050565b6000612b54612b4f83612e94565b612a30565b9050919050565b6000612b6e612b6983613000565b612a30565b9050919050565b6000612b88612b838361300d565b612a30565b9050919050565b6000612ba2612b9d83613027565b612a30565b9050919050565b6000612bbc612bb783612ea1565b612a30565b9050919050565b6000612bd6612bd183612eae565b612a30565b9050919050565b6000612bf0612beb83612ebb565b612a30565b9050919050565b6000612c0a612c0583612ec8565b612a30565b9050919050565b6000612c24612c1f83612ed5565b612a30565b9050919050565b6000612c3e612c3983612ee2565b612a30565b9050919050565b6000612c58612c5383612eef565b612a30565b9050919050565b6000612c72612c6d8361301a565b612a30565b9050919050565b6000612c8c612c8783612efc565b612a30565b9050919050565b6000612ca6612ca183612f09565b612a30565b9050919050565b6000612cc0612cbb83612f23565b612a30565b9050919050565b6000612cda612cd583612f30565b612a30565b9050919050565b6000612cf4612cef83612f3d565b612a30565b9050919050565b6000612d0e612d0983612f4a565b612a30565b9050919050565b6000612d28612d2383612f57565b612a30565b9050919050565b6000612d42612d3d83612f64565b612a30565b9050919050565b6000612d5c612d5783612f71565b612a30565b9050919050565b6000612d76612d7183612f7e565b612a30565b9050919050565b6000612d90612d8b83612f16565b612a30565b9050919050565b6000612daa612da583612f8b565b612a30565b9050919050565b6000612dc4612dbf83612f98565b612a30565b9050919050565b6000612dde612dd983612fa5565b612a30565b9050919050565b6000612df8612df383612fb2565b612a30565b9050919050565b6000612e12612e0d83612fbf565b612a30565b9050919050565b6000612e2c612e2783612fcc565b612a30565b9050919050565b6000612e46612e4183612fd9565b612a30565b9050919050565b6000612e60612e5b83612fe6565b612a30565b9050919050565b6000612e7a612e7583612ff3565b612a30565b9050919050565bfe5b6000601f19601f8301169050919050565b60008160001c9050919050565b60008160681c9050919050565b60008160701c9050919050565b60008160781c9050919050565b60008160801c9050919050565b60008160881c9050919050565b60008160901c9050919050565b60008160981c9050919050565b60008160a01c9050919050565b60008160a81c9050919050565b60008160101c9050919050565b60008160b01c9050919050565b60008160b81c9050919050565b60008160c01c9050919050565b60008160c81c9050919050565b60008160d01c9050919050565b60008160d81c9050919050565b60008160e01c9050919050565b60008160e81c9050919050565b60008160f01c9050919050565b60008160f81c9050919050565b60008160181c9050919050565b60008160201c9050919050565b60008160281c9050919050565b60008160301c9050919050565b60008160381c9050919050565b60008160401c9050919050565b60008160481c9050919050565b60008160501c9050919050565b60008160581c9050919050565b60008160081c9050919050565b60008160601c9050919050565b6006811061304557613044612e81565b5b50565b61305181612a3d565b811461305c57600080fd5b50565b61306881612a8e565b811461307357600080fd5b5056fe4f776e61626c653a206e6577206f776e657220697320746865207a65726f2061646472657373a2646970667358221220411d02b875f7aa3d591b2ab10803a6a8232f4dac5958f26cd293819845c5445764736f6c63430007060033",
  "immutableReferences": {},
  "source": "///SPDX-License-Identifier: GPL-3.0\npragma solidity ^0.7.4;\npragma experimental ABIEncoderV2;\n\n/* import contrat ownable*/\nimport \"./Ownable.sol\";\n\n/**\n * @title Voting\n   @author Sandy,Julien,Stphane\n   @notice Contrat de vote, getsion par un superadmin\n */\n\ncontract Voting is Ownable {\n    uint8[] public winningProposalId;\n\n    //increment d'ids\n    uint8 proposalIds;\n\n    struct Voter {\n        bool isRegistered;\n        address _address;\n        bool hasVoted;\n        // voir l'utilit :\n        uint256 votedProposalId;\n    }\n\n    struct Proposal {\n        uint8 id;\n        address owner;\n        string description;\n        uint256 voteCount;\n    }\n\n    mapping(address => Voter) public whiteList;\n\n    mapping(uint256 => Proposal) public proposals;\n\n    enum WorkflowStatus {\n        RegisteringVoters,\n        ProposalsRegistrationStarted,\n        ProposalsRegistrationEnded,\n        VotingSessionStarted,\n        VotingSessionEnded,\n        VotesTallied\n    }\n\n    WorkflowStatus public status;\n\n    ///@notice Events\n    event NewVotingSystem();\n    event VoterRegistered(address voterAddress);\n    event ProposalsRegistrationStarted();\n    event ProposalsRegistrationEnded();\n    event ProposalRegistered(uint256 proposalId);\n    event VotingSessionStarted();\n    event VotingSessionEnded();\n    event Voted(address voter, uint256 proposalId);\n    event VotesTallied(uint8[] _winningProposals);\n    event WorkflowStatusChange(\n        WorkflowStatus previousStatus,\n        WorkflowStatus newStatus\n    );\n\n    constructor() {\n        emit NewVotingSystem();\n    }\n\n    function getWinningProposal() public view returns (Proposal memory proposal){\n      //a voir en cas de plusieurs gagnnats boucle ->\n        return proposals[winningProposalId[0]];\n    }\n\n    ///@param _address  ajouter  la whitelist\n    function addVoter(address _address) public onlyOwner {\n        require(status == WorkflowStatus.RegisteringVoters);\n        Voter memory newVoter = Voter(true, _address, false, 0);\n        whiteList[_address] = newVoter;\n        emit VoterRegistered(_address);\n    }\n\n    function deleteVoter(address _address) public onlyOwner {\n        delete whiteList[_address];\n    }\n\n    function startProposalRegistration() public onlyOwner {\n        status = WorkflowStatus.ProposalsRegistrationStarted;\n        emit ProposalsRegistrationStarted();\n    }\n\n    function endProposalRegistration() public onlyOwner {\n        status = WorkflowStatus.ProposalsRegistrationEnded;\n        emit ProposalsRegistrationEnded();\n    }\n\n    function startVotingSession() public onlyOwner {\n        status = WorkflowStatus.VotingSessionStarted;\n        emit VotingSessionStarted();\n    }\n\n    function endVotingSession() public onlyOwner {\n        status = WorkflowStatus.VotingSessionEnded;\n        emit VotingSessionEnded();\n    }\n\n    ///@dev Verification de la prsence de l'address dans la whitelist\n    modifier whiteListed() {\n        require(whiteList[msg.sender].isRegistered == true);\n        _;\n    }\n\n    ///@param _description est le nom de la proposition\n    function addProposal(string memory _description) public whiteListed {\n        //obligation d'tre dans le workflow correspondant\n        //deux propositions identiques sont possibles  voir...\n        require(status == WorkflowStatus.ProposalsRegistrationStarted);\n        Proposal memory newProposal =\n        Proposal(proposalIds, msg.sender, _description, 0);\n        proposals[proposalIds] = newProposal;\n        emit ProposalRegistered(proposalIds);\n        proposalIds++;\n    }\n\n    function deleteProposal(uint256 _id) public whiteListed {\n        require(proposals[_id].owner == msg.sender);\n        delete proposals[_id];\n    }\n    //a voir si on fait function delete proposal aussi pour l'admin\n    function deleteProposalAdmin(uint256 _id) public onlyOwner {\n        delete proposals[_id];\n    }\n\n    function vote(uint256 _id) public whiteListed {\n        require(status == WorkflowStatus.VotingSessionStarted);\n        require(whiteList[msg.sender].hasVoted == false);\n        whiteList[msg.sender].hasVoted = true;\n        proposals[_id].voteCount++;\n        emit Voted(msg.sender, _id);\n    }\n\n    function count() public onlyOwner {\n        require(status == WorkflowStatus.VotingSessionEnded);\n        uint8 id;\n        uint256 highestCount;\n        uint8[] storage winners;\n\n        for (uint256 i = 0; i <= proposalIds; i++) {\n            if (highestCount < proposals[i].voteCount) {\n                highestCount = proposals[i].voteCount;\n                id = proposals[i].id;\n\n                // new solution with array\n                if (winners.length >= 1) {\n                    winners.pop();\n                }\n                winners.push(proposals[i].id);\n                ///@dev  voir les cas particuliers o plusieurs gagnants\n            } else if (highestCount == proposals[i].voteCount){\n                winners.push(proposals[i].id);\n            }\n        winningProposalId = winners;\n\n        status = WorkflowStatus.VotesTallied;\n        emit VotesTallied(winningProposalId);   \n  }\n    }\n    ///@return le statut en cours du vote\n    function getEnum() public view returns(WorkflowStatus) {}\n}\n",
  "sourcePath": "/Users/sandyinstructor/Documents/BLOCKCHAIN/Alyra/Defi/VotingSys/contracts/Voting.sol",
  "compiler": {
    "name": "solc",
    "version": "0.7.6+commit.7338295f.Emscripten.clang"
  },
  "schemaVersion": "3.3.4",
  "updatedAt": "2021-03-04T16:11:59.757Z",
  "devdoc": {
    "author": "Sandy,Julien,Stphane",
    "kind": "dev",
    "methods": {
      "addProposal(string)": {
        "params": {
          "_description": "est le nom de la proposition"
        }
      },
      "addVoter(address)": {
        "params": {
          "_address": " ajouter  la whitelist"
        }
      },
      "getEnum()": {
        "returns": {
          "_0": "le statut en cours du vote"
        }
      },
      "owner()": {
        "details": "Returns the address of the current owner."
      },
      "renounceOwnership()": {
        "details": "Leaves the contract without owner. It will not be possible to call `onlyOwner` functions anymore. Can only be called by the current owner. NOTE: Renouncing ownership will leave the contract without an owner, thereby removing any functionality that is only available to the owner."
      },
      "transferOwnership(address)": {
        "details": "Transfers ownership of the contract to a new account (`newOwner`). Can only be called by the current owner."
      }
    },
    "title": "Voting",
    "version": 1
  },
  "userdoc": {
    "events": {
      "NewVotingSystem()": {
        "notice": "Events"
      }
    },
    "kind": "user",
    "methods": {},
    "notice": "Contrat de vote, getsion par un superadmin",
    "version": 1
  }
}