{
  "contractName": "Voting",
  "abi": [
    {
      "inputs": [],
      "stateMutability": "nonpayable",
      "type": "constructor"
    },
    {
      "anonymous": false,
      "inputs": [],
      "name": "NewVotingSystem",
      "type": "event"
    },
    {
      "anonymous": false,
      "inputs": [
        {
          "indexed": true,
          "internalType": "address",
          "name": "previousOwner",
          "type": "address"
        },
        {
          "indexed": true,
          "internalType": "address",
          "name": "newOwner",
          "type": "address"
        }
      ],
      "name": "OwnershipTransferred",
      "type": "event"
    },
    {
      "anonymous": false,
      "inputs": [
        {
          "indexed": false,
          "internalType": "uint256",
          "name": "proposalId",
          "type": "uint256"
        }
      ],
      "name": "ProposalRegistered",
      "type": "event"
    },
    {
      "anonymous": false,
      "inputs": [],
      "name": "ProposalsRegistrationEnded",
      "type": "event"
    },
    {
      "anonymous": false,
      "inputs": [],
      "name": "ProposalsRegistrationStarted",
      "type": "event"
    },
    {
      "anonymous": false,
      "inputs": [
        {
          "indexed": false,
          "internalType": "address",
          "name": "voter",
          "type": "address"
        },
        {
          "indexed": false,
          "internalType": "uint256",
          "name": "proposalId",
          "type": "uint256"
        }
      ],
      "name": "Voted",
      "type": "event"
    },
    {
      "anonymous": false,
      "inputs": [
        {
          "indexed": false,
          "internalType": "address",
          "name": "voterAddress",
          "type": "address"
        }
      ],
      "name": "VoterRegistered",
      "type": "event"
    },
    {
      "anonymous": false,
      "inputs": [
        {
          "indexed": false,
          "internalType": "uint8[]",
          "name": "_winningProposals",
          "type": "uint8[]"
        }
      ],
      "name": "VotesTallied",
      "type": "event"
    },
    {
      "anonymous": false,
      "inputs": [],
      "name": "VotingSessionEnded",
      "type": "event"
    },
    {
      "anonymous": false,
      "inputs": [],
      "name": "VotingSessionStarted",
      "type": "event"
    },
    {
      "anonymous": false,
      "inputs": [
        {
          "indexed": false,
          "internalType": "enum Voting.WorkflowStatus",
          "name": "previousStatus",
          "type": "uint8"
        },
        {
          "indexed": false,
          "internalType": "enum Voting.WorkflowStatus",
          "name": "newStatus",
          "type": "uint8"
        }
      ],
      "name": "WorkflowStatusChange",
      "type": "event"
    },
    {
      "inputs": [],
      "name": "owner",
      "outputs": [
        {
          "internalType": "address",
          "name": "",
          "type": "address"
        }
      ],
      "stateMutability": "view",
      "type": "function"
    },
    {
      "inputs": [],
      "name": "proposalIds",
      "outputs": [
        {
          "internalType": "uint8",
          "name": "",
          "type": "uint8"
        }
      ],
      "stateMutability": "view",
      "type": "function"
    },
    {
      "inputs": [
        {
          "internalType": "uint256",
          "name": "",
          "type": "uint256"
        }
      ],
      "name": "proposals",
      "outputs": [
        {
          "internalType": "uint8",
          "name": "id",
          "type": "uint8"
        },
        {
          "internalType": "address",
          "name": "owner",
          "type": "address"
        },
        {
          "internalType": "string",
          "name": "description",
          "type": "string"
        },
        {
          "internalType": "uint256",
          "name": "voteCount",
          "type": "uint256"
        }
      ],
      "stateMutability": "view",
      "type": "function"
    },
    {
      "inputs": [],
      "name": "renounceOwnership",
      "outputs": [],
      "stateMutability": "nonpayable",
      "type": "function"
    },
    {
      "inputs": [],
      "name": "status",
      "outputs": [
        {
          "internalType": "enum Voting.WorkflowStatus",
          "name": "",
          "type": "uint8"
        }
      ],
      "stateMutability": "view",
      "type": "function"
    },
    {
      "inputs": [
        {
          "internalType": "address",
          "name": "newOwner",
          "type": "address"
        }
      ],
      "name": "transferOwnership",
      "outputs": [],
      "stateMutability": "nonpayable",
      "type": "function"
    },
    {
      "inputs": [
        {
          "internalType": "address",
          "name": "",
          "type": "address"
        }
      ],
      "name": "whiteList",
      "outputs": [
        {
          "internalType": "bool",
          "name": "isRegistered",
          "type": "bool"
        },
        {
          "internalType": "address",
          "name": "_address",
          "type": "address"
        },
        {
          "internalType": "bool",
          "name": "hasVoted",
          "type": "bool"
        },
        {
          "internalType": "uint256",
          "name": "votedProposalId",
          "type": "uint256"
        }
      ],
      "stateMutability": "view",
      "type": "function"
    },
    {
      "inputs": [
        {
          "internalType": "uint256",
          "name": "",
          "type": "uint256"
        }
      ],
      "name": "winningProposalId",
      "outputs": [
        {
          "internalType": "uint8",
          "name": "",
          "type": "uint8"
        }
      ],
      "stateMutability": "view",
      "type": "function"
    },
    {
      "inputs": [],
      "name": "getWinningProposal",
      "outputs": [
        {
          "components": [
            {
              "internalType": "uint8",
              "name": "id",
              "type": "uint8"
            },
            {
              "internalType": "address",
              "name": "owner",
              "type": "address"
            },
            {
              "internalType": "string",
              "name": "description",
              "type": "string"
            },
            {
              "internalType": "uint256",
              "name": "voteCount",
              "type": "uint256"
            }
          ],
          "internalType": "struct Voting.Proposal",
          "name": "proposal",
          "type": "tuple"
        }
      ],
      "stateMutability": "view",
      "type": "function"
    },
    {
      "inputs": [
        {
          "internalType": "address",
          "name": "_address",
          "type": "address"
        }
      ],
      "name": "addVoter",
      "outputs": [],
      "stateMutability": "nonpayable",
      "type": "function"
    },
    {
      "inputs": [
        {
          "internalType": "address",
          "name": "_address",
          "type": "address"
        }
      ],
      "name": "deleteVoter",
      "outputs": [],
      "stateMutability": "nonpayable",
      "type": "function"
    },
    {
      "inputs": [],
      "name": "startProposalRegistration",
      "outputs": [],
      "stateMutability": "nonpayable",
      "type": "function"
    },
    {
      "inputs": [],
      "name": "endProposalRegistration",
      "outputs": [],
      "stateMutability": "nonpayable",
      "type": "function"
    },
    {
      "inputs": [],
      "name": "startVotingSession",
      "outputs": [],
      "stateMutability": "nonpayable",
      "type": "function"
    },
    {
      "inputs": [],
      "name": "endVotingSession",
      "outputs": [],
      "stateMutability": "nonpayable",
      "type": "function"
    },
    {
      "inputs": [
        {
          "internalType": "string",
          "name": "_description",
          "type": "string"
        }
      ],
      "name": "addProposal",
      "outputs": [],
      "stateMutability": "nonpayable",
      "type": "function"
    },
    {
      "inputs": [
        {
          "internalType": "uint256",
          "name": "_id",
          "type": "uint256"
        }
      ],
      "name": "deleteProposal",
      "outputs": [],
      "stateMutability": "nonpayable",
      "type": "function"
    },
    {
      "inputs": [
        {
          "internalType": "uint256",
          "name": "_id",
          "type": "uint256"
        }
      ],
      "name": "deleteProposalAdmin",
      "outputs": [],
      "stateMutability": "nonpayable",
      "type": "function"
    },
    {
      "inputs": [
        {
          "internalType": "uint256",
          "name": "_id",
          "type": "uint256"
        }
      ],
      "name": "vote",
      "outputs": [],
      "stateMutability": "nonpayable",
      "type": "function"
    },
    {
      "inputs": [],
      "name": "count",
      "outputs": [],
      "stateMutability": "nonpayable",
      "type": "function"
    },
    {
      "inputs": [],
      "name": "getEnum",
      "outputs": [
        {
          "internalType": "enum Voting.WorkflowStatus",
          "name": "",
          "type": "uint8"
        }
      ],
      "stateMutability": "view",
      "type": "function"
    }
  ],
  "bytecode": "0x608060405234801561001057600080fd5b5060006100216100f060201b60201c565b9050806000806101000a81548173ffffffffffffffffffffffffffffffffffffffff021916908373ffffffffffffffffffffffffffffffffffffffff1602179055508073ffffffffffffffffffffffffffffffffffffffff16600073ffffffffffffffffffffffffffffffffffffffff167f8be0079c531659141344cd1fd0a4f28419497f9722a3daafe3b4186f6b6457e060405160405180910390a3507f28c5e727295d809da653948416bdc4fe30913878a5f1332ded39bc4730d10c5660405160405180910390a16100f8565b600033905090565b6131ca80620001086000396000f3fe608060405234801561001057600080fd5b50600436106101375760003560e01c80638259d553116100b8578063d903170a1161007c578063d903170a146102ce578063e85a8f2a146102fe578063ee74c67814610308578063f0ebce5a14610312578063f2fde38b14610330578063f4ab9adf1461034c57610137565b80638259d5531461025057806388e1c7391461026c5780638da5cb5b14610288578063a5134620146102a6578063a7bfab16146102c457610137565b80632d5de3c9116100ff5780632d5de3c9146101bd5780632fdae3c5146101d9578063372c12b1146101f55780633d5af2ed14610228578063715018a61461024657610137565b80630121b93f1461013c578063013cf08b1461015857806306661abd1461018b5780630f7e283814610195578063200d2ed21461019f575b600080fd5b61015660048036038101906101519190611e9f565b610368565b005b610172600480360381019061016d9190611e9f565b610517565b6040516101829493929190612a1d565b60405180910390f35b61019361060c565b005b61019d61093b565b005b6101a7610a55565b6040516101b4919061298a565b60405180910390f35b6101d760048036038101906101d29190611e9f565b610a68565b005b6101f360048036038101906101ee9190611e5e565b610b9c565b005b61020f600480360381019061020a9190611e35565b610de6565b60405161021f9493929190612945565b60405180910390f35b610230610e50565b60405161023d9190612a02565b60405180910390f35b61024e610e63565b005b61026a60048036038101906102659190611e9f565b610fe9565b005b61028660048036038101906102819190611e35565b611123565b005b610290611287565b60405161029d91906128df565b60405180910390f35b6102ae6112b0565b6040516102bb91906129c5565b60405180910390f35b6102cc61142a565b005b6102e860048036038101906102e39190611e9f565b611544565b6040516102f59190612a02565b60405180910390f35b610306611578565b005b610310611692565b005b61031a6117ac565b604051610327919061298a565b60405180910390f35b61034a60048036038101906103459190611e35565b6117b1565b005b61036660048036038101906103619190611e35565b6119bc565b005b60011515600360003373ffffffffffffffffffffffffffffffffffffffff1673ffffffffffffffffffffffffffffffffffffffff16815260200190815260200160002060000160009054906101000a900460ff161515146103c857600080fd5b600360058111156103d557fe5b600560009054906101000a900460ff1660058111156103f057fe5b146103fa57600080fd5b60001515600360003373ffffffffffffffffffffffffffffffffffffffff1673ffffffffffffffffffffffffffffffffffffffff16815260200190815260200160002060000160159054906101000a900460ff1615151461045a57600080fd5b6001600360003373ffffffffffffffffffffffffffffffffffffffff1673ffffffffffffffffffffffffffffffffffffffff16815260200190815260200160002060000160156101000a81548160ff02191690831515021790555060046000828152602001908152602001600020600201600081548092919060010191905055507f4d99b957a2bc29a30ebd96a7be8e68fe50a3c701db28a91436490b7d53870ca4338260405161050c9291906128fa565b60405180910390a150565b60046020528060005260406000206000915090508060000160009054906101000a900460ff16908060000160019054906101000a900473ffffffffffffffffffffffffffffffffffffffff1690806001018054600181600116156101000203166002900480601f0160208091040260200160405190810160405280929190818152602001828054600181600116156101000203166002900480156105fc5780601f106105d1576101008083540402835291602001916105fc565b820191906000526020600020905b8154815290600101906020018083116105df57829003601f168201915b5050505050908060020154905084565b610614611c07565b73ffffffffffffffffffffffffffffffffffffffff1660008054906101000a900473ffffffffffffffffffffffffffffffffffffffff1673ffffffffffffffffffffffffffffffffffffffff16146106d4576040517f08c379a00000000000000000000000000000000000000000000000000000000081526004018080602001828103825260208152602001807f4f776e61626c653a2063616c6c6572206973206e6f7420746865206f776e657281525060200191505060405180910390fd5b600460058111156106e157fe5b600560009054906101000a900460ff1660058111156106fc57fe5b1461070657600080fd5b600080600080600090505b600260009054906101000a900460ff1660ff16811161093557600460008281526020019081526020016000206002015483101561083457600460008281526020019081526020016000206002015492506004600082815260200190815260200160002060000160009054906101000a900460ff16935060018280549050106107c8578180548061079d57fe5b60019003818190600052602060002090602091828204019190066101000a81549060ff021916905590555b816004600083815260200190815260200160002060000160009054906101000a900460ff1690806001815401808255809150506001900390600052602060002090602091828204019190069091909190916101000a81548160ff021916908360ff1602179055506108bb565b60046000828152602001908152602001600020600201548314156108ba57816004600083815260200190815260200160002060000160009054906101000a900460ff1690806001815401808255809150506001900390600052602060002090602091828204019190069091909190916101000a81548160ff021916908360ff1602179055505b5b8160019080546108cc929190611c0f565b5060058060006101000a81548160ff021916908360058111156108eb57fe5b02179055507f89d03b5a5b2a99a95181ddefa14f6681dac625f00a78e7eba22da4b6ede5a38060016040516109209190612923565b60405180910390a18080600101915050610711565b50505050565b610943611c07565b73ffffffffffffffffffffffffffffffffffffffff1660008054906101000a900473ffffffffffffffffffffffffffffffffffffffff1673ffffffffffffffffffffffffffffffffffffffff1614610a03576040517f08c379a00000000000000000000000000000000000000000000000000000000081526004018080602001828103825260208152602001807f4f776e61626c653a2063616c6c6572206973206e6f7420746865206f776e657281525060200191505060405180910390fd5b6001600560006101000a81548160ff02191690836005811115610a2257fe5b02179055507f344c25562921d075a298d34b6dd1fd00d36ff293974539dfd4a8c625d9f0064c60405160405180910390a1565b600560009054906101000a900460ff1681565b610a70611c07565b73ffffffffffffffffffffffffffffffffffffffff1660008054906101000a900473ffffffffffffffffffffffffffffffffffffffff1673ffffffffffffffffffffffffffffffffffffffff1614610b30576040517f08c379a00000000000000000000000000000000000000000000000000000000081526004018080602001828103825260208152602001807f4f776e61626c653a2063616c6c6572206973206e6f7420746865206f776e657281525060200191505060405180910390fd5b60046000828152602001908152602001600020600080820160006101000a81549060ff02191690556000820160016101000a81549073ffffffffffffffffffffffffffffffffffffffff0219169055600182016000610b8f9190611c6f565b6002820160009055505050565b60011515600360003373ffffffffffffffffffffffffffffffffffffffff1673ffffffffffffffffffffffffffffffffffffffff16815260200190815260200160002060000160009054906101000a900460ff16151514610bfc57600080fd5b60016005811115610c0957fe5b600560009054906101000a900460ff166005811115610c2457fe5b14610c64576040517f08c379a0000000000000000000000000000000000000000000000000000000008152600401610c5b906129a5565b60405180910390fd5b60006040518060800160405280600260009054906101000a900460ff1660ff1681526020013373ffffffffffffffffffffffffffffffffffffffff168152602001838152602001600081525090508060046000600260009054906101000a900460ff1660ff16815260200190815260200160002060008201518160000160006101000a81548160ff021916908360ff16021790555060208201518160000160016101000a81548173ffffffffffffffffffffffffffffffffffffffff021916908373ffffffffffffffffffffffffffffffffffffffff1602179055506040820151816001019080519060200190610d5c929190611cb7565b50606082015181600201559050506002600081819054906101000a900460ff168092919060010191906101000a81548160ff021916908360ff160217905550507f92e393e9b54e2f801d3ea4beb0c5e71a21cc34a5d34b77d0fb8a3aa1650dc18f600260009054906101000a900460ff16604051610dda91906129e7565b60405180910390a15050565b60036020528060005260406000206000915090508060000160009054906101000a900460ff16908060000160019054906101000a900473ffffffffffffffffffffffffffffffffffffffff16908060000160159054906101000a900460ff16908060010154905084565b600260009054906101000a900460ff1681565b610e6b611c07565b73ffffffffffffffffffffffffffffffffffffffff1660008054906101000a900473ffffffffffffffffffffffffffffffffffffffff1673ffffffffffffffffffffffffffffffffffffffff1614610f2b576040517f08c379a00000000000000000000000000000000000000000000000000000000081526004018080602001828103825260208152602001807f4f776e61626c653a2063616c6c6572206973206e6f7420746865206f776e657281525060200191505060405180910390fd5b600073ffffffffffffffffffffffffffffffffffffffff1660008054906101000a900473ffffffffffffffffffffffffffffffffffffffff1673ffffffffffffffffffffffffffffffffffffffff167f8be0079c531659141344cd1fd0a4f28419497f9722a3daafe3b4186f6b6457e060405160405180910390a360008060006101000a81548173ffffffffffffffffffffffffffffffffffffffff021916908373ffffffffffffffffffffffffffffffffffffffff160217905550565b60011515600360003373ffffffffffffffffffffffffffffffffffffffff1673ffffffffffffffffffffffffffffffffffffffff16815260200190815260200160002060000160009054906101000a900460ff1615151461104957600080fd5b3373ffffffffffffffffffffffffffffffffffffffff166004600083815260200190815260200160002060000160019054906101000a900473ffffffffffffffffffffffffffffffffffffffff1673ffffffffffffffffffffffffffffffffffffffff16146110b757600080fd5b60046000828152602001908152602001600020600080820160006101000a81549060ff02191690556000820160016101000a81549073ffffffffffffffffffffffffffffffffffffffff02191690556001820160006111169190611c6f565b6002820160009055505050565b61112b611c07565b73ffffffffffffffffffffffffffffffffffffffff1660008054906101000a900473ffffffffffffffffffffffffffffffffffffffff1673ffffffffffffffffffffffffffffffffffffffff16146111eb576040517f08c379a00000000000000000000000000000000000000000000000000000000081526004018080602001828103825260208152602001807f4f776e61626c653a2063616c6c6572206973206e6f7420746865206f776e657281525060200191505060405180910390fd5b600360008273ffffffffffffffffffffffffffffffffffffffff1673ffffffffffffffffffffffffffffffffffffffff168152602001908152602001600020600080820160006101000a81549060ff02191690556000820160016101000a81549073ffffffffffffffffffffffffffffffffffffffff02191690556000820160156101000a81549060ff02191690556001820160009055505050565b60008060009054906101000a900473ffffffffffffffffffffffffffffffffffffffff16905090565b6112b8611d45565b6004600060016000815481106112ca57fe5b90600052602060002090602091828204019190069054906101000a900460ff1660ff1681526020019081526020016000206040518060800160405290816000820160009054906101000a900460ff1660ff1660ff1681526020016000820160019054906101000a900473ffffffffffffffffffffffffffffffffffffffff1673ffffffffffffffffffffffffffffffffffffffff1673ffffffffffffffffffffffffffffffffffffffff168152602001600182018054600181600116156101000203166002900480601f0160208091040260200160405190810160405280929190818152602001828054600181600116156101000203166002900480156114125780601f106113e757610100808354040283529160200191611412565b820191906000526020600020905b8154815290600101906020018083116113f557829003601f168201915b50505050508152602001600282015481525050905090565b611432611c07565b73ffffffffffffffffffffffffffffffffffffffff1660008054906101000a900473ffffffffffffffffffffffffffffffffffffffff1673ffffffffffffffffffffffffffffffffffffffff16146114f2576040517f08c379a00000000000000000000000000000000000000000000000000000000081526004018080602001828103825260208152602001807f4f776e61626c653a2063616c6c6572206973206e6f7420746865206f776e657281525060200191505060405180910390fd5b6004600560006101000a81548160ff0219169083600581111561151157fe5b02179055507fc379d349a6301baf50fb2f98d829f4ae10b1cdb7c66f4e4d8117302df7b8cd4c60405160405180910390a1565b6001818154811061155457600080fd5b9060005260206000209060209182820401919006915054906101000a900460ff1681565b611580611c07565b73ffffffffffffffffffffffffffffffffffffffff1660008054906101000a900473ffffffffffffffffffffffffffffffffffffffff1673ffffffffffffffffffffffffffffffffffffffff1614611640576040517f08c379a00000000000000000000000000000000000000000000000000000000081526004018080602001828103825260208152602001807f4f776e61626c653a2063616c6c6572206973206e6f7420746865206f776e657281525060200191505060405180910390fd5b6002600560006101000a81548160ff0219169083600581111561165f57fe5b02179055507f240cb87b2e4df4c318e72bd714d45a9cad60249e883ff56b1fffd83a4595a8fa60405160405180910390a1565b61169a611c07565b73ffffffffffffffffffffffffffffffffffffffff1660008054906101000a900473ffffffffffffffffffffffffffffffffffffffff1673ffffffffffffffffffffffffffffffffffffffff161461175a576040517f08c379a00000000000000000000000000000000000000000000000000000000081526004018080602001828103825260208152602001807f4f776e61626c653a2063616c6c6572206973206e6f7420746865206f776e657281525060200191505060405180910390fd5b6003600560006101000a81548160ff0219169083600581111561177957fe5b02179055507f1b8e19a458c1bcd88553332c518cc5c4e2d5793e712ee766d4f1c14f672ef1f560405160405180910390a1565b600090565b6117b9611c07565b73ffffffffffffffffffffffffffffffffffffffff1660008054906101000a900473ffffffffffffffffffffffffffffffffffffffff1673ffffffffffffffffffffffffffffffffffffffff1614611879576040517f08c379a00000000000000000000000000000000000000000000000000000000081526004018080602001828103825260208152602001807f4f776e61626c653a2063616c6c6572206973206e6f7420746865206f776e657281525060200191505060405180910390fd5b600073ffffffffffffffffffffffffffffffffffffffff168173ffffffffffffffffffffffffffffffffffffffff1614156118ff576040517f08c379a000000000000000000000000000000000000000000000000000000000815260040180806020018281038252602681526020018061316f6026913960400191505060405180910390fd5b8073ffffffffffffffffffffffffffffffffffffffff1660008054906101000a900473ffffffffffffffffffffffffffffffffffffffff1673ffffffffffffffffffffffffffffffffffffffff167f8be0079c531659141344cd1fd0a4f28419497f9722a3daafe3b4186f6b6457e060405160405180910390a3806000806101000a81548173ffffffffffffffffffffffffffffffffffffffff021916908373ffffffffffffffffffffffffffffffffffffffff16021790555050565b6119c4611c07565b73ffffffffffffffffffffffffffffffffffffffff1660008054906101000a900473ffffffffffffffffffffffffffffffffffffffff1673ffffffffffffffffffffffffffffffffffffffff1614611a84576040517f08c379a00000000000000000000000000000000000000000000000000000000081526004018080602001828103825260208152602001807f4f776e61626c653a2063616c6c6572206973206e6f7420746865206f776e657281525060200191505060405180910390fd5b60006005811115611a9157fe5b600560009054906101000a900460ff166005811115611aac57fe5b14611ab657600080fd5b600060405180608001604052806001151581526020018373ffffffffffffffffffffffffffffffffffffffff1681526020016000151581526020016000815250905080600360008473ffffffffffffffffffffffffffffffffffffffff1673ffffffffffffffffffffffffffffffffffffffff16815260200190815260200160002060008201518160000160006101000a81548160ff02191690831515021790555060208201518160000160016101000a81548173ffffffffffffffffffffffffffffffffffffffff021916908373ffffffffffffffffffffffffffffffffffffffff16021790555060408201518160000160156101000a81548160ff021916908315150217905550606082015181600101559050507fb6be2187d059cc2a55fe29e0e503b566e1e0f8c8780096e185429350acffd3dd82604051611bfb91906128df565b60405180910390a15050565b600033905090565b82805482825590600052602060002090601f01602090048101928215611c5e57600052602060002091601f016020900482015b82811115611c5d578254825591600101919060010190611c42565b5b509050611c6b9190611d86565b5090565b50805460018160011615610100020316600290046000825580601f10611c955750611cb4565b601f016020900490600052602060002090810190611cb39190611d86565b5b50565b828054600181600116156101000203166002900490600052602060002090601f016020900481019282611ced5760008555611d34565b82601f10611d0657805160ff1916838001178555611d34565b82800160010185558215611d34579182015b82811115611d33578251825591602001919060010190611d18565b5b509050611d419190611d86565b5090565b6040518060800160405280600060ff168152602001600073ffffffffffffffffffffffffffffffffffffffff16815260200160608152602001600081525090565b5b80821115611d9f576000816000905550600101611d87565b5090565b6000611db6611db184612a9a565b612a69565b905082815260208101848484011115611dce57600080fd5b611dd9848285612bf7565b509392505050565b600081359050611df081613140565b92915050565b600082601f830112611e0757600080fd5b8135611e17848260208601611da3565b91505092915050565b600081359050611e2f81613157565b92915050565b600060208284031215611e4757600080fd5b6000611e5584828501611de1565b91505092915050565b600060208284031215611e7057600080fd5b600082013567ffffffffffffffff811115611e8a57600080fd5b611e9684828501611df6565b91505092915050565b600060208284031215611eb157600080fd5b6000611ebf84828501611e20565b91505092915050565b611ed181612b9d565b82525050565b611ee081612b35565b82525050565b611eef81612b35565b82525050565b6000611f0082612adf565b611f0a8185612af5565b935083611f1684612aca565b6000600115612243575b83600160200382011015612242578154611f4288611f3d83612c39565b6128c1565b602088019750611f5a88611f5583612d57565b6128c1565b602088019750611f7288611f6d83612e75565b6128c1565b602088019750611f8a88611f8583612ec3565b6128c1565b602088019750611fa288611f9d83612edd565b6128c1565b602088019750611fba88611fb583612ef7565b6128c1565b602088019750611fd288611fcd83612f11565b6128c1565b602088019750611fea88611fe583612f2b565b6128c1565b60208801975061200288611ffd83612f45565b6128c1565b60208801975061201a8861201583612f5f565b6128c1565b6020880197506120328861202d83612c53565b6128c1565b60208801975061204a8861204583612c6d565b6128c1565b6020880197506120628861205d83612c87565b6128c1565b60208801975061207a8861207583612ca1565b6128c1565b6020880197506120928861208d83612cbb565b6128c1565b6020880197506120aa886120a583612cd5565b6128c1565b6020880197506120c2886120bd83612cef565b6128c1565b6020880197506120da886120d583612d09565b6128c1565b6020880197506120f2886120ed83612d23565b6128c1565b60208801975061210a8861210583612d3d565b6128c1565b6020880197506121228861211d83612d71565b6128c1565b60208801975061213a8861213583612d8b565b6128c1565b6020880197506121528861214d83612da5565b6128c1565b60208801975061216a8861216583612dbf565b6128c1565b6020880197506121828861217d83612dd9565b6128c1565b60208801975061219a8861219583612df3565b6128c1565b6020880197506121b2886121ad83612e0d565b6128c1565b6020880197506121ca886121c583612e27565b6128c1565b6020880197506121e2886121dd83612e41565b6128c1565b6020880197506121fa886121f583612e5b565b6128c1565b6020880197506122128861220d83612e8f565b6128c1565b60208801975061222a8861222583612ea9565b6128c1565b60208801975060018301925050602081019050611f20565b5b60011561272e57815484821015612273576122668861226183612c39565b6128c1565b6020880197506001820191505b8482101561229a5761228d8861228883612d57565b6128c1565b6020880197506001820191505b848210156122c1576122b4886122af83612e75565b6128c1565b6020880197506001820191505b848210156122e8576122db886122d683612ec3565b6128c1565b6020880197506001820191505b8482101561230f57612302886122fd83612edd565b6128c1565b6020880197506001820191505b84821015612336576123298861232483612ef7565b6128c1565b6020880197506001820191505b8482101561235d576123508861234b83612f11565b6128c1565b6020880197506001820191505b84821015612384576123778861237283612f2b565b6128c1565b6020880197506001820191505b848210156123ab5761239e8861239983612f45565b6128c1565b6020880197506001820191505b848210156123d2576123c5886123c083612f5f565b6128c1565b6020880197506001820191505b848210156123f9576123ec886123e783612c53565b6128c1565b6020880197506001820191505b84821015612420576124138861240e83612c6d565b6128c1565b6020880197506001820191505b848210156124475761243a8861243583612c87565b6128c1565b6020880197506001820191505b8482101561246e576124618861245c83612ca1565b6128c1565b6020880197506001820191505b84821015612495576124888861248383612cbb565b6128c1565b6020880197506001820191505b848210156124bc576124af886124aa83612cd5565b6128c1565b6020880197506001820191505b848210156124e3576124d6886124d183612cef565b6128c1565b6020880197506001820191505b8482101561250a576124fd886124f883612d09565b6128c1565b6020880197506001820191505b84821015612531576125248861251f83612d23565b6128c1565b6020880197506001820191505b848210156125585761254b8861254683612d3d565b6128c1565b6020880197506001820191505b8482101561257f576125728861256d83612d71565b6128c1565b6020880197506001820191505b848210156125a6576125998861259483612d8b565b6128c1565b6020880197506001820191505b848210156125cd576125c0886125bb83612da5565b6128c1565b6020880197506001820191505b848210156125f4576125e7886125e283612dbf565b6128c1565b6020880197506001820191505b8482101561261b5761260e8861260983612dd9565b6128c1565b6020880197506001820191505b84821015612642576126358861263083612df3565b6128c1565b6020880197506001820191505b848210156126695761265c8861265783612e0d565b6128c1565b6020880197506001820191505b84821015612690576126838861267e83612e27565b6128c1565b6020880197506001820191505b848210156126b7576126aa886126a583612e41565b6128c1565b6020880197506001820191505b848210156126de576126d1886126cc83612e5b565b6128c1565b6020880197506001820191505b84821015612705576126f8886126f383612e8f565b6128c1565b6020880197506001820191505b8482101561272c5761271f8861271a83612ea9565b6128c1565b6020880197506001820191505b505b8694505050505092915050565b61274481612b47565b82525050565b61275381612baf565b82525050565b600061276482612aea565b61276e8185612b06565b935061277e818560208601612c06565b61278781612f7b565b840191505092915050565b600061279d82612aea565b6127a78185612b17565b93506127b7818560208601612c06565b6127c081612f7b565b840191505092915050565b60006127d8602183612b17565b91507f50726f706f73616c732073657373696f6e20686173206e6f742073746172746560008301527f64000000000000000000000000000000000000000000000000000000000000006020830152604082019050919050565b600060808301600083015161284960008601826128c1565b50602083015161285c6020860182611ed7565b50604083015184820360408601526128748282612759565b91505060608301516128896060860182612894565b508091505092915050565b61289d81612b86565b82525050565b6128ac81612b86565b82525050565b6128bb81612be5565b82525050565b6128ca81612b90565b82525050565b6128d981612b90565b82525050565b60006020820190506128f46000830184611ee6565b92915050565b600060408201905061290f6000830185611ec8565b61291c60208301846128a3565b9392505050565b6000602082019050818103600083015261293d8184611ef5565b905092915050565b600060808201905061295a600083018761273b565b6129676020830186611ee6565b612974604083018561273b565b61298160608301846128a3565b95945050505050565b600060208201905061299f600083018461274a565b92915050565b600060208201905081810360008301526129be816127cb565b9050919050565b600060208201905081810360008301526129df8184612831565b905092915050565b60006020820190506129fc60008301846128b2565b92915050565b6000602082019050612a1760008301846128d0565b92915050565b6000608082019050612a3260008301876128d0565b612a3f6020830186611ee6565b8181036040830152612a518185612792565b9050612a6060608301846128a3565b95945050505050565b6000604051905081810181811067ffffffffffffffff82111715612a9057612a8f612f79565b5b8060405250919050565b600067ffffffffffffffff821115612ab557612ab4612f79565b5b601f19601f8301169050602081019050919050565b60008190508160005260206000209050919050565b600081549050919050565b600081519050919050565b600082825260208201905092915050565b600082825260208201905092915050565b600082825260208201905092915050565b600060ff82169050919050565b6000612b4082612b66565b9050919050565b60008115159050919050565b6000819050612b618261312c565b919050565b600073ffffffffffffffffffffffffffffffffffffffff82169050919050565b6000819050919050565b600060ff82169050919050565b6000612ba882612bc1565b9050919050565b6000612bba82612b53565b9050919050565b6000612bcc82612bd3565b9050919050565b6000612bde82612b66565b9050919050565b6000612bf082612b90565b9050919050565b82818337600083830152505050565b60005b83811015612c24578082015181840152602081019050612c09565b83811115612c33576000848401525b50505050565b6000612c4c612c4783612f8c565b612b28565b9050919050565b6000612c66612c61836130f8565b612b28565b9050919050565b6000612c80612c7b83613105565b612b28565b9050919050565b6000612c9a612c958361311f565b612b28565b9050919050565b6000612cb4612caf83612f99565b612b28565b9050919050565b6000612cce612cc983612fa6565b612b28565b9050919050565b6000612ce8612ce383612fb3565b612b28565b9050919050565b6000612d02612cfd83612fc0565b612b28565b9050919050565b6000612d1c612d1783612fcd565b612b28565b9050919050565b6000612d36612d3183612fda565b612b28565b9050919050565b6000612d50612d4b83612fe7565b612b28565b9050919050565b6000612d6a612d6583613112565b612b28565b9050919050565b6000612d84612d7f83612ff4565b612b28565b9050919050565b6000612d9e612d9983613001565b612b28565b9050919050565b6000612db8612db38361301b565b612b28565b9050919050565b6000612dd2612dcd83613028565b612b28565b9050919050565b6000612dec612de783613035565b612b28565b9050919050565b6000612e06612e0183613042565b612b28565b9050919050565b6000612e20612e1b8361304f565b612b28565b9050919050565b6000612e3a612e358361305c565b612b28565b9050919050565b6000612e54612e4f83613069565b612b28565b9050919050565b6000612e6e612e6983613076565b612b28565b9050919050565b6000612e88612e838361300e565b612b28565b9050919050565b6000612ea2612e9d83613083565b612b28565b9050919050565b6000612ebc612eb783613090565b612b28565b9050919050565b6000612ed6612ed18361309d565b612b28565b9050919050565b6000612ef0612eeb836130aa565b612b28565b9050919050565b6000612f0a612f05836130b7565b612b28565b9050919050565b6000612f24612f1f836130c4565b612b28565b9050919050565b6000612f3e612f39836130d1565b612b28565b9050919050565b6000612f58612f53836130de565b612b28565b9050919050565b6000612f72612f6d836130eb565b612b28565b9050919050565bfe5b6000601f19601f8301169050919050565b60008160001c9050919050565b60008160681c9050919050565b60008160701c9050919050565b60008160781c9050919050565b60008160801c9050919050565b60008160881c9050919050565b60008160901c9050919050565b60008160981c9050919050565b60008160a01c9050919050565b60008160a81c9050919050565b60008160101c9050919050565b60008160b01c9050919050565b60008160b81c9050919050565b60008160c01c9050919050565b60008160c81c9050919050565b60008160d01c9050919050565b60008160d81c9050919050565b60008160e01c9050919050565b60008160e81c9050919050565b60008160f01c9050919050565b60008160f81c9050919050565b60008160181c9050919050565b60008160201c9050919050565b60008160281c9050919050565b60008160301c9050919050565b60008160381c9050919050565b60008160401c9050919050565b60008160481c9050919050565b60008160501c9050919050565b60008160581c9050919050565b60008160081c9050919050565b60008160601c9050919050565b6006811061313d5761313c612f79565b5b50565b61314981612b35565b811461315457600080fd5b50565b61316081612b86565b811461316b57600080fd5b5056fe4f776e61626c653a206e6577206f776e657220697320746865207a65726f2061646472657373a26469706673582212208a6cf653addc30b93945935584fac46618c2fc2fe589bd060379385d46b5cb6864736f6c63430007060033",
  "immutableReferences": {},
  "source": "///SPDX-License-Identifier: GPL-3.0\npragma solidity ^0.7.4;\npragma experimental ABIEncoderV2;\n\n/* import contrat ownable*/\nimport \"./Ownable.sol\";\n\n/**\n * @title Voting\n   @author Sandy,Julien,Stphane\n   @notice Contrat de vote, getsion par un superadmin\n */\n\ncontract Voting is Ownable {\n    uint8[] public winningProposalId;\n\n    //increment d'ids\n    uint8 public proposalIds;\n\n    struct Voter {\n        bool isRegistered;\n        address _address;\n        bool hasVoted;\n        // voir l'utilit :\n        uint256 votedProposalId;\n    }\n\n    struct Proposal {\n        uint8 id;\n        address owner;\n        string description;\n        uint256 voteCount;\n    }\n\n    mapping(address => Voter) public whiteList;\n\n    mapping(uint256 => Proposal) public proposals;\n\n    enum WorkflowStatus {\n        RegisteringVoters,\n        ProposalsRegistrationStarted,\n        ProposalsRegistrationEnded,\n        VotingSessionStarted,\n        VotingSessionEnded,\n        VotesTallied\n    }\n\n    WorkflowStatus public status;\n\n    ///@notice Events\n    event NewVotingSystem();\n    event VoterRegistered(address voterAddress);\n    event ProposalsRegistrationStarted();\n    event ProposalsRegistrationEnded();\n    event ProposalRegistered(uint256 proposalId);\n    event VotingSessionStarted();\n    event VotingSessionEnded();\n    event Voted(address voter, uint256 proposalId);\n    event VotesTallied(uint8[] _winningProposals);\n    event WorkflowStatusChange(\n        WorkflowStatus previousStatus,\n        WorkflowStatus newStatus\n    );\n\n    constructor() {\n        emit NewVotingSystem();\n    }\n\n    function getWinningProposal() public view returns (Proposal memory proposal){\n      //a voir en cas de plusieurs gagnnats boucle ->\n        return proposals[winningProposalId[0]];\n    }\n\n    ///@param _address  ajouter  la whitelist\n    function addVoter(address _address) public onlyOwner {\n        require(status == WorkflowStatus.RegisteringVoters);\n        Voter memory newVoter = Voter(true, _address, false, 0);\n        whiteList[_address] = newVoter;\n        emit VoterRegistered(_address);\n    }\n\n    function deleteVoter(address _address) public onlyOwner {\n        delete whiteList[_address];\n    }\n\n    function startProposalRegistration() public onlyOwner   {\n        status = WorkflowStatus.ProposalsRegistrationStarted;\n        emit ProposalsRegistrationStarted();\n    }\n\n    function endProposalRegistration() public onlyOwner {\n        status = WorkflowStatus.ProposalsRegistrationEnded;\n        emit ProposalsRegistrationEnded();\n    }\n\n    function startVotingSession() public onlyOwner {\n        status = WorkflowStatus.VotingSessionStarted;\n        emit VotingSessionStarted();\n    }\n\n    function endVotingSession() public onlyOwner {\n        status = WorkflowStatus.VotingSessionEnded;\n        emit VotingSessionEnded();\n    }\n\n    ///@dev Verification de la prsence de l'address dans la whitelist\n    modifier whiteListed() {\n        require(whiteList[msg.sender].isRegistered == true);\n        _;\n    }\n\n    ///@param _description est le nom de la proposition\n    function addProposal(string memory _description) public whiteListed {\n        //obligation d'tre dans le workflow correspondant\n        //deux propositions identiques sont possibles  voir...\n        require(status == WorkflowStatus.ProposalsRegistrationStarted, \"Proposals session has not started\");\n        Proposal memory newProposal =\n        Proposal(proposalIds, msg.sender, _description, 0);\n        proposals[proposalIds] = newProposal;\n        proposalIds++;\n        emit ProposalRegistered(proposalIds);\n    }\n\n    function deleteProposal(uint256 _id) public whiteListed {\n        require(proposals[_id].owner == msg.sender);\n        delete proposals[_id];\n    }\n    //a voir si on fait function delete proposal aussi pour l'admin\n    function deleteProposalAdmin(uint256 _id) public onlyOwner {\n        delete proposals[_id];\n    }\n\n    function vote(uint256 _id) public whiteListed {\n        require(status == WorkflowStatus.VotingSessionStarted);\n        require(whiteList[msg.sender].hasVoted == false);\n        whiteList[msg.sender].hasVoted = true;\n        proposals[_id].voteCount++;\n        emit Voted(msg.sender, _id);\n    }\n\n    function count() public onlyOwner {\n        require(status == WorkflowStatus.VotingSessionEnded);\n        uint8 id;\n        uint256 highestCount;\n        uint8[] storage winners;\n\n        for (uint256 i = 0; i <= proposalIds; i++) {\n            if (highestCount < proposals[i].voteCount) {\n                highestCount = proposals[i].voteCount;\n                id = proposals[i].id;\n\n                // new solution with array\n                if (winners.length >= 1) {\n                    winners.pop();\n                }\n                winners.push(proposals[i].id);\n                ///@dev  voir les cas particuliers o plusieurs gagnants\n            } else if (highestCount == proposals[i].voteCount){\n                winners.push(proposals[i].id);\n            }\n        winningProposalId = winners;\n\n        status = WorkflowStatus.VotesTallied;\n        emit VotesTallied(winningProposalId);   \n  }\n    }\n    ///@return le statut en cours du vote\n    function getEnum() public view returns(WorkflowStatus) {}\n}\n",
  "sourcePath": "/Users/sandyinstructor/Documents/BLOCKCHAIN/Alyra/Defi/VotingSys/contracts/Voting.sol",
  "compiler": {
    "name": "solc",
    "version": "0.7.6+commit.7338295f.Emscripten.clang"
  },
  "schemaVersion": "3.3.4",
  "updatedAt": "2021-03-05T00:13:10.560Z",
  "devdoc": {
    "author": "Sandy,Julien,Stphane",
    "kind": "dev",
    "methods": {
      "addProposal(string)": {
        "params": {
          "_description": "est le nom de la proposition"
        }
      },
      "addVoter(address)": {
        "params": {
          "_address": " ajouter  la whitelist"
        }
      },
      "getEnum()": {
        "returns": {
          "_0": "le statut en cours du vote"
        }
      },
      "owner()": {
        "details": "Returns the address of the current owner."
      },
      "renounceOwnership()": {
        "details": "Leaves the contract without owner. It will not be possible to call `onlyOwner` functions anymore. Can only be called by the current owner. NOTE: Renouncing ownership will leave the contract without an owner, thereby removing any functionality that is only available to the owner."
      },
      "transferOwnership(address)": {
        "details": "Transfers ownership of the contract to a new account (`newOwner`). Can only be called by the current owner."
      }
    },
    "title": "Voting",
    "version": 1
  },
  "userdoc": {
    "events": {
      "NewVotingSystem()": {
        "notice": "Events"
      }
    },
    "kind": "user",
    "methods": {},
    "notice": "Contrat de vote, getsion par un superadmin",
    "version": 1
  }
}