{
  "contractName": "Voting",
  "abi": [
    {
      "inputs": [],
      "stateMutability": "nonpayable",
      "type": "constructor"
    },
    {
      "anonymous": false,
      "inputs": [],
      "name": "NewVotingSystem",
      "type": "event"
    },
    {
      "anonymous": false,
      "inputs": [
        {
          "indexed": true,
          "internalType": "address",
          "name": "previousOwner",
          "type": "address"
        },
        {
          "indexed": true,
          "internalType": "address",
          "name": "newOwner",
          "type": "address"
        }
      ],
      "name": "OwnershipTransferred",
      "type": "event"
    },
    {
      "anonymous": false,
      "inputs": [
        {
          "indexed": false,
          "internalType": "uint256",
          "name": "proposalId",
          "type": "uint256"
        }
      ],
      "name": "ProposalRegistered",
      "type": "event"
    },
    {
      "anonymous": false,
      "inputs": [],
      "name": "ProposalsRegistrationEnded",
      "type": "event"
    },
    {
      "anonymous": false,
      "inputs": [],
      "name": "ProposalsRegistrationStarted",
      "type": "event"
    },
    {
      "anonymous": false,
      "inputs": [
        {
          "indexed": false,
          "internalType": "address",
          "name": "voter",
          "type": "address"
        },
        {
          "indexed": false,
          "internalType": "uint256",
          "name": "proposalId",
          "type": "uint256"
        }
      ],
      "name": "Voted",
      "type": "event"
    },
    {
      "anonymous": false,
      "inputs": [
        {
          "indexed": false,
          "internalType": "address",
          "name": "voterAddress",
          "type": "address"
        }
      ],
      "name": "VoterRegistered",
      "type": "event"
    },
    {
      "anonymous": false,
      "inputs": [],
      "name": "VotesTallied",
      "type": "event"
    },
    {
      "anonymous": false,
      "inputs": [],
      "name": "VotingSessionEnded",
      "type": "event"
    },
    {
      "anonymous": false,
      "inputs": [],
      "name": "VotingSessionStarted",
      "type": "event"
    },
    {
      "anonymous": false,
      "inputs": [
        {
          "indexed": false,
          "internalType": "enum Voting.WorkflowStatus",
          "name": "previousStatus",
          "type": "uint8"
        },
        {
          "indexed": false,
          "internalType": "enum Voting.WorkflowStatus",
          "name": "newStatus",
          "type": "uint8"
        }
      ],
      "name": "WorkflowStatusChange",
      "type": "event"
    },
    {
      "inputs": [],
      "name": "owner",
      "outputs": [
        {
          "internalType": "address",
          "name": "",
          "type": "address"
        }
      ],
      "stateMutability": "view",
      "type": "function"
    },
    {
      "inputs": [
        {
          "internalType": "uint256",
          "name": "",
          "type": "uint256"
        }
      ],
      "name": "proposals",
      "outputs": [
        {
          "internalType": "uint8",
          "name": "id",
          "type": "uint8"
        },
        {
          "internalType": "address",
          "name": "owner",
          "type": "address"
        },
        {
          "internalType": "string",
          "name": "description",
          "type": "string"
        },
        {
          "internalType": "uint256",
          "name": "voteCount",
          "type": "uint256"
        }
      ],
      "stateMutability": "view",
      "type": "function"
    },
    {
      "inputs": [],
      "name": "renounceOwnership",
      "outputs": [],
      "stateMutability": "nonpayable",
      "type": "function"
    },
    {
      "inputs": [],
      "name": "status",
      "outputs": [
        {
          "internalType": "enum Voting.WorkflowStatus",
          "name": "",
          "type": "uint8"
        }
      ],
      "stateMutability": "view",
      "type": "function"
    },
    {
      "inputs": [
        {
          "internalType": "address",
          "name": "newOwner",
          "type": "address"
        }
      ],
      "name": "transferOwnership",
      "outputs": [],
      "stateMutability": "nonpayable",
      "type": "function"
    },
    {
      "inputs": [
        {
          "internalType": "address",
          "name": "",
          "type": "address"
        }
      ],
      "name": "voters",
      "outputs": [
        {
          "internalType": "bool",
          "name": "isRegistered",
          "type": "bool"
        },
        {
          "internalType": "address",
          "name": "_address",
          "type": "address"
        },
        {
          "internalType": "bool",
          "name": "hasVoted",
          "type": "bool"
        },
        {
          "internalType": "uint256",
          "name": "votedProposalId",
          "type": "uint256"
        }
      ],
      "stateMutability": "view",
      "type": "function"
    },
    {
      "inputs": [
        {
          "internalType": "address",
          "name": "",
          "type": "address"
        }
      ],
      "name": "whiteList",
      "outputs": [
        {
          "internalType": "bool",
          "name": "isRegistered",
          "type": "bool"
        },
        {
          "internalType": "address",
          "name": "_address",
          "type": "address"
        },
        {
          "internalType": "bool",
          "name": "hasVoted",
          "type": "bool"
        },
        {
          "internalType": "uint256",
          "name": "votedProposalId",
          "type": "uint256"
        }
      ],
      "stateMutability": "view",
      "type": "function"
    },
    {
      "inputs": [],
      "name": "winningProposalId",
      "outputs": [
        {
          "internalType": "uint8",
          "name": "",
          "type": "uint8"
        }
      ],
      "stateMutability": "view",
      "type": "function"
    },
    {
      "inputs": [],
      "name": "getWinningProposal",
      "outputs": [
        {
          "components": [
            {
              "internalType": "uint8",
              "name": "id",
              "type": "uint8"
            },
            {
              "internalType": "address",
              "name": "owner",
              "type": "address"
            },
            {
              "internalType": "string",
              "name": "description",
              "type": "string"
            },
            {
              "internalType": "uint256",
              "name": "voteCount",
              "type": "uint256"
            }
          ],
          "internalType": "struct Voting.Proposal",
          "name": "proposal",
          "type": "tuple"
        }
      ],
      "stateMutability": "view",
      "type": "function"
    },
    {
      "inputs": [
        {
          "internalType": "address",
          "name": "_address",
          "type": "address"
        }
      ],
      "name": "addVoter",
      "outputs": [],
      "stateMutability": "nonpayable",
      "type": "function"
    },
    {
      "inputs": [
        {
          "internalType": "address",
          "name": "_address",
          "type": "address"
        }
      ],
      "name": "deleteVoter",
      "outputs": [],
      "stateMutability": "nonpayable",
      "type": "function"
    },
    {
      "inputs": [],
      "name": "startProposalRegistration",
      "outputs": [],
      "stateMutability": "nonpayable",
      "type": "function"
    },
    {
      "inputs": [],
      "name": "endProposalRegistration",
      "outputs": [],
      "stateMutability": "nonpayable",
      "type": "function"
    },
    {
      "inputs": [],
      "name": "startVotingSession",
      "outputs": [],
      "stateMutability": "nonpayable",
      "type": "function"
    },
    {
      "inputs": [],
      "name": "endVotingSession",
      "outputs": [],
      "stateMutability": "nonpayable",
      "type": "function"
    },
    {
      "inputs": [
        {
          "internalType": "string",
          "name": "_description",
          "type": "string"
        }
      ],
      "name": "addProposal",
      "outputs": [],
      "stateMutability": "nonpayable",
      "type": "function"
    },
    {
      "inputs": [
        {
          "internalType": "uint256",
          "name": "_id",
          "type": "uint256"
        }
      ],
      "name": "deleteProposal",
      "outputs": [],
      "stateMutability": "nonpayable",
      "type": "function"
    },
    {
      "inputs": [
        {
          "internalType": "uint256",
          "name": "_id",
          "type": "uint256"
        }
      ],
      "name": "vote",
      "outputs": [],
      "stateMutability": "nonpayable",
      "type": "function"
    },
    {
      "inputs": [],
      "name": "count",
      "outputs": [],
      "stateMutability": "nonpayable",
      "type": "function"
    },
    {
      "inputs": [],
      "name": "getEnum",
      "outputs": [
        {
          "internalType": "enum Voting.WorkflowStatus",
          "name": "",
          "type": "uint8"
        }
      ],
      "stateMutability": "view",
      "type": "function"
    }
  ],
  "bytecode": "0x608060405234801561001057600080fd5b5060006100216100f060201b60201c565b9050806000806101000a81548173ffffffffffffffffffffffffffffffffffffffff021916908373ffffffffffffffffffffffffffffffffffffffff1602179055508073ffffffffffffffffffffffffffffffffffffffff16600073ffffffffffffffffffffffffffffffffffffffff167f8be0079c531659141344cd1fd0a4f28419497f9722a3daafe3b4186f6b6457e060405160405180910390a3507f28c5e727295d809da653948416bdc4fe30913878a5f1332ded39bc4730d10c5660405160405180910390a16100f8565b600033905090565b612092806101076000396000f3fe608060405234801561001057600080fd5b506004361061012c5760003560e01c80638da5cb5b116100ad578063e85a8f2a11610071578063e85a8f2a146102da578063ee74c678146102e4578063f0ebce5a146102ee578063f2fde38b1461030c578063f4ab9adf146103285761012c565b80638da5cb5b14610243578063a3ec138d14610261578063a513462014610294578063a7bfab16146102b2578063c64963c5146102bc5761012c565b80632fdae3c5116100f45780632fdae3c5146101b2578063372c12b1146101ce578063715018a6146102015780638259d5531461020b57806388e1c739146102275761012c565b80630121b93f14610131578063013cf08b1461014d57806306661abd146101805780630f7e28381461018a578063200d2ed214610194575b600080fd5b61014b60048036038101906101469190611b73565b610344565b005b61016760048036038101906101629190611b73565b6104f3565b6040516101779493929190611e03565b60405180910390f35b6101886105e8565b005b6101926107c4565b005b61019c6108de565b6040516101a99190611d90565b60405180910390f35b6101cc60048036038101906101c79190611b32565b6108f1565b005b6101e860048036038101906101e39190611b09565b610b04565b6040516101f89493929190611d4b565b60405180910390f35b610209610b6e565b005b61022560048036038101906102209190611b73565b610cf4565b005b610241600480360381019061023c9190611b09565b610e2e565b005b61024b610f92565b6040516102589190611d07565b60405180910390f35b61027b60048036038101906102769190611b09565b610fbb565b60405161028b9493929190611d4b565b60405180910390f35b61029c611025565b6040516102a99190611dab565b60405180910390f35b6102ba611180565b005b6102c4611299565b6040516102d19190611de8565b60405180910390f35b6102e26112ac565b005b6102ec6113c6565b005b6102f66114e0565b6040516103039190611d90565b60405180910390f35b61032660048036038101906103219190611b09565b6114e5565b005b610342600480360381019061033d9190611b09565b6116f0565b005b60011515600260003373ffffffffffffffffffffffffffffffffffffffff1673ffffffffffffffffffffffffffffffffffffffff16815260200190815260200160002060000160009054906101000a900460ff161515146103a457600080fd5b600360058111156103b157fe5b600460009054906101000a900460ff1660058111156103cc57fe5b146103d657600080fd5b60001515600260003373ffffffffffffffffffffffffffffffffffffffff1673ffffffffffffffffffffffffffffffffffffffff16815260200190815260200160002060000160159054906101000a900460ff1615151461043657600080fd5b6001600260003373ffffffffffffffffffffffffffffffffffffffff1673ffffffffffffffffffffffffffffffffffffffff16815260200190815260200160002060000160156101000a81548160ff02191690831515021790555060036000828152602001908152602001600020600201600081548092919060010191905055507f4d99b957a2bc29a30ebd96a7be8e68fe50a3c701db28a91436490b7d53870ca433826040516104e8929190611d22565b60405180910390a150565b60036020528060005260406000206000915090508060000160009054906101000a900460ff16908060000160019054906101000a900473ffffffffffffffffffffffffffffffffffffffff1690806001018054600181600116156101000203166002900480601f0160208091040260200160405190810160405280929190818152602001828054600181600116156101000203166002900480156105d85780601f106105ad576101008083540402835291602001916105d8565b820191906000526020600020905b8154815290600101906020018083116105bb57829003601f168201915b5050505050908060020154905084565b6105f061193b565b73ffffffffffffffffffffffffffffffffffffffff1660008054906101000a900473ffffffffffffffffffffffffffffffffffffffff1673ffffffffffffffffffffffffffffffffffffffff16146106b0576040517f08c379a00000000000000000000000000000000000000000000000000000000081526004018080602001828103825260208152602001807f4f776e61626c653a2063616c6c6572206973206e6f7420746865206f776e657281525060200191505060405180910390fd5b600460058111156106bd57fe5b600460009054906101000a900460ff1660058111156106d857fe5b146106e257600080fd5b60008060005b600060159054906101000a900460ff1660ff16811015610754576003600082815260200190815260200160002060020154821015610747576003600082815260200190815260200160002060000160009054906101000a900460ff1692505b80806001019150506106e8565b5081600060146101000a81548160ff021916908360ff1602179055507f0e5e95ff8725ab3e7a4b6b59998a4c344c2aa8d1485f5e60cb7f337768e6134760405160405180910390a16005600460006101000a81548160ff021916908360058111156107bb57fe5b02179055505050565b6107cc61193b565b73ffffffffffffffffffffffffffffffffffffffff1660008054906101000a900473ffffffffffffffffffffffffffffffffffffffff1673ffffffffffffffffffffffffffffffffffffffff161461088c576040517f08c379a00000000000000000000000000000000000000000000000000000000081526004018080602001828103825260208152602001807f4f776e61626c653a2063616c6c6572206973206e6f7420746865206f776e657281525060200191505060405180910390fd5b6001600460006101000a81548160ff021916908360058111156108ab57fe5b02179055507f344c25562921d075a298d34b6dd1fd00d36ff293974539dfd4a8c625d9f0064c60405160405180910390a1565b600460009054906101000a900460ff1681565b60011515600260003373ffffffffffffffffffffffffffffffffffffffff1673ffffffffffffffffffffffffffffffffffffffff16815260200190815260200160002060000160009054906101000a900460ff1615151461095157600080fd5b6001600581111561095e57fe5b600460009054906101000a900460ff16600581111561097957fe5b1461098357600080fd5b60006040518060800160405280600060159054906101000a900460ff1660ff1681526020013373ffffffffffffffffffffffffffffffffffffffff1681526020018381526020016000815250905080600360008060159054906101000a900460ff1660ff16815260200190815260200160002060008201518160000160006101000a81548160ff021916908360ff16021790555060208201518160000160016101000a81548173ffffffffffffffffffffffffffffffffffffffff021916908373ffffffffffffffffffffffffffffffffffffffff1602179055506040820151816001019080519060200190610a7a929190611943565b50606082015181600201559050507f92e393e9b54e2f801d3ea4beb0c5e71a21cc34a5d34b77d0fb8a3aa1650dc18f600060159054906101000a900460ff16604051610ac69190611dcd565b60405180910390a16000601581819054906101000a900460ff168092919060010191906101000a81548160ff021916908360ff160217905550505050565b60026020528060005260406000206000915090508060000160009054906101000a900460ff16908060000160019054906101000a900473ffffffffffffffffffffffffffffffffffffffff16908060000160159054906101000a900460ff16908060010154905084565b610b7661193b565b73ffffffffffffffffffffffffffffffffffffffff1660008054906101000a900473ffffffffffffffffffffffffffffffffffffffff1673ffffffffffffffffffffffffffffffffffffffff1614610c36576040517f08c379a00000000000000000000000000000000000000000000000000000000081526004018080602001828103825260208152602001807f4f776e61626c653a2063616c6c6572206973206e6f7420746865206f776e657281525060200191505060405180910390fd5b600073ffffffffffffffffffffffffffffffffffffffff1660008054906101000a900473ffffffffffffffffffffffffffffffffffffffff1673ffffffffffffffffffffffffffffffffffffffff167f8be0079c531659141344cd1fd0a4f28419497f9722a3daafe3b4186f6b6457e060405160405180910390a360008060006101000a81548173ffffffffffffffffffffffffffffffffffffffff021916908373ffffffffffffffffffffffffffffffffffffffff160217905550565b60011515600260003373ffffffffffffffffffffffffffffffffffffffff1673ffffffffffffffffffffffffffffffffffffffff16815260200190815260200160002060000160009054906101000a900460ff16151514610d5457600080fd5b3373ffffffffffffffffffffffffffffffffffffffff166003600083815260200190815260200160002060000160019054906101000a900473ffffffffffffffffffffffffffffffffffffffff1673ffffffffffffffffffffffffffffffffffffffff1614610dc257600080fd5b60036000828152602001908152602001600020600080820160006101000a81549060ff02191690556000820160016101000a81549073ffffffffffffffffffffffffffffffffffffffff0219169055600182016000610e2191906119d1565b6002820160009055505050565b610e3661193b565b73ffffffffffffffffffffffffffffffffffffffff1660008054906101000a900473ffffffffffffffffffffffffffffffffffffffff1673ffffffffffffffffffffffffffffffffffffffff1614610ef6576040517f08c379a00000000000000000000000000000000000000000000000000000000081526004018080602001828103825260208152602001807f4f776e61626c653a2063616c6c6572206973206e6f7420746865206f776e657281525060200191505060405180910390fd5b600260008273ffffffffffffffffffffffffffffffffffffffff1673ffffffffffffffffffffffffffffffffffffffff168152602001908152602001600020600080820160006101000a81549060ff02191690556000820160016101000a81549073ffffffffffffffffffffffffffffffffffffffff02191690556000820160156101000a81549060ff02191690556001820160009055505050565b60008060009054906101000a900473ffffffffffffffffffffffffffffffffffffffff16905090565b60016020528060005260406000206000915090508060000160009054906101000a900460ff16908060000160019054906101000a900473ffffffffffffffffffffffffffffffffffffffff16908060000160159054906101000a900460ff16908060010154905084565b61102d611a19565b600360008060149054906101000a900460ff1660ff1681526020019081526020016000206040518060800160405290816000820160009054906101000a900460ff1660ff1660ff1681526020016000820160019054906101000a900473ffffffffffffffffffffffffffffffffffffffff1673ffffffffffffffffffffffffffffffffffffffff1673ffffffffffffffffffffffffffffffffffffffff168152602001600182018054600181600116156101000203166002900480601f0160208091040260200160405190810160405280929190818152602001828054600181600116156101000203166002900480156111685780601f1061113d57610100808354040283529160200191611168565b820191906000526020600020905b81548152906001019060200180831161114b57829003601f168201915b50505050508152602001600282015481525050905090565b61118861193b565b73ffffffffffffffffffffffffffffffffffffffff1660008054906101000a900473ffffffffffffffffffffffffffffffffffffffff1673ffffffffffffffffffffffffffffffffffffffff1614611248576040517f08c379a00000000000000000000000000000000000000000000000000000000081526004018080602001828103825260208152602001807f4f776e61626c653a2063616c6c6572206973206e6f7420746865206f776e657281525060200191505060405180910390fd5b60048060006101000a81548160ff0219169083600581111561126657fe5b02179055507fc379d349a6301baf50fb2f98d829f4ae10b1cdb7c66f4e4d8117302df7b8cd4c60405160405180910390a1565b600060149054906101000a900460ff1681565b6112b461193b565b73ffffffffffffffffffffffffffffffffffffffff1660008054906101000a900473ffffffffffffffffffffffffffffffffffffffff1673ffffffffffffffffffffffffffffffffffffffff1614611374576040517f08c379a00000000000000000000000000000000000000000000000000000000081526004018080602001828103825260208152602001807f4f776e61626c653a2063616c6c6572206973206e6f7420746865206f776e657281525060200191505060405180910390fd5b6002600460006101000a81548160ff0219169083600581111561139357fe5b02179055507f240cb87b2e4df4c318e72bd714d45a9cad60249e883ff56b1fffd83a4595a8fa60405160405180910390a1565b6113ce61193b565b73ffffffffffffffffffffffffffffffffffffffff1660008054906101000a900473ffffffffffffffffffffffffffffffffffffffff1673ffffffffffffffffffffffffffffffffffffffff161461148e576040517f08c379a00000000000000000000000000000000000000000000000000000000081526004018080602001828103825260208152602001807f4f776e61626c653a2063616c6c6572206973206e6f7420746865206f776e657281525060200191505060405180910390fd5b6003600460006101000a81548160ff021916908360058111156114ad57fe5b02179055507f1b8e19a458c1bcd88553332c518cc5c4e2d5793e712ee766d4f1c14f672ef1f560405160405180910390a1565b600090565b6114ed61193b565b73ffffffffffffffffffffffffffffffffffffffff1660008054906101000a900473ffffffffffffffffffffffffffffffffffffffff1673ffffffffffffffffffffffffffffffffffffffff16146115ad576040517f08c379a00000000000000000000000000000000000000000000000000000000081526004018080602001828103825260208152602001807f4f776e61626c653a2063616c6c6572206973206e6f7420746865206f776e657281525060200191505060405180910390fd5b600073ffffffffffffffffffffffffffffffffffffffff168173ffffffffffffffffffffffffffffffffffffffff161415611633576040517f08c379a00000000000000000000000000000000000000000000000000000000081526004018080602001828103825260268152602001806120376026913960400191505060405180910390fd5b8073ffffffffffffffffffffffffffffffffffffffff1660008054906101000a900473ffffffffffffffffffffffffffffffffffffffff1673ffffffffffffffffffffffffffffffffffffffff167f8be0079c531659141344cd1fd0a4f28419497f9722a3daafe3b4186f6b6457e060405160405180910390a3806000806101000a81548173ffffffffffffffffffffffffffffffffffffffff021916908373ffffffffffffffffffffffffffffffffffffffff16021790555050565b6116f861193b565b73ffffffffffffffffffffffffffffffffffffffff1660008054906101000a900473ffffffffffffffffffffffffffffffffffffffff1673ffffffffffffffffffffffffffffffffffffffff16146117b8576040517f08c379a00000000000000000000000000000000000000000000000000000000081526004018080602001828103825260208152602001807f4f776e61626c653a2063616c6c6572206973206e6f7420746865206f776e657281525060200191505060405180910390fd5b600060058111156117c557fe5b600460009054906101000a900460ff1660058111156117e057fe5b146117ea57600080fd5b600060405180608001604052806001151581526020018373ffffffffffffffffffffffffffffffffffffffff1681526020016000151581526020016000815250905080600260008473ffffffffffffffffffffffffffffffffffffffff1673ffffffffffffffffffffffffffffffffffffffff16815260200190815260200160002060008201518160000160006101000a81548160ff02191690831515021790555060208201518160000160016101000a81548173ffffffffffffffffffffffffffffffffffffffff021916908373ffffffffffffffffffffffffffffffffffffffff16021790555060408201518160000160156101000a81548160ff021916908315150217905550606082015181600101559050507fb6be2187d059cc2a55fe29e0e503b566e1e0f8c8780096e185429350acffd3dd8260405161192f9190611d07565b60405180910390a15050565b600033905090565b828054600181600116156101000203166002900490600052602060002090601f01602090048101928261197957600085556119c0565b82601f1061199257805160ff19168380011785556119c0565b828001600101855582156119c0579182015b828111156119bf5782518255916020019190600101906119a4565b5b5090506119cd9190611a5a565b5090565b50805460018160011615610100020316600290046000825580601f106119f75750611a16565b601f016020900490600052602060002090810190611a159190611a5a565b5b50565b6040518060800160405280600060ff168152602001600073ffffffffffffffffffffffffffffffffffffffff16815260200160608152602001600081525090565b5b80821115611a73576000816000905550600101611a5b565b5090565b6000611a8a611a8584611e80565b611e4f565b905082815260208101848484011115611aa257600080fd5b611aad848285611f9f565b509392505050565b600081359050611ac481612008565b92915050565b600082601f830112611adb57600080fd5b8135611aeb848260208601611a77565b91505092915050565b600081359050611b038161201f565b92915050565b600060208284031215611b1b57600080fd5b6000611b2984828501611ab5565b91505092915050565b600060208284031215611b4457600080fd5b600082013567ffffffffffffffff811115611b5e57600080fd5b611b6a84828501611aca565b91505092915050565b600060208284031215611b8557600080fd5b6000611b9384828501611af4565b91505092915050565b611ba581611f45565b82525050565b611bb481611edd565b82525050565b611bc381611edd565b82525050565b611bd281611eef565b82525050565b611be181611f57565b82525050565b6000611bf282611eb0565b611bfc8185611ebb565b9350611c0c818560208601611fae565b611c1581611fe3565b840191505092915050565b6000611c2b82611eb0565b611c358185611ecc565b9350611c45818560208601611fae565b611c4e81611fe3565b840191505092915050565b6000608083016000830151611c716000860182611ce9565b506020830151611c846020860182611bab565b5060408301518482036040860152611c9c8282611be7565b9150506060830151611cb16060860182611cbc565b508091505092915050565b611cc581611f2e565b82525050565b611cd481611f2e565b82525050565b611ce381611f8d565b82525050565b611cf281611f38565b82525050565b611d0181611f38565b82525050565b6000602082019050611d1c6000830184611bba565b92915050565b6000604082019050611d376000830185611b9c565b611d446020830184611ccb565b9392505050565b6000608082019050611d606000830187611bc9565b611d6d6020830186611bba565b611d7a6040830185611bc9565b611d876060830184611ccb565b95945050505050565b6000602082019050611da56000830184611bd8565b92915050565b60006020820190508181036000830152611dc58184611c59565b905092915050565b6000602082019050611de26000830184611cda565b92915050565b6000602082019050611dfd6000830184611cf8565b92915050565b6000608082019050611e186000830187611cf8565b611e256020830186611bba565b8181036040830152611e378185611c20565b9050611e466060830184611ccb565b95945050505050565b6000604051905081810181811067ffffffffffffffff82111715611e7657611e75611fe1565b5b8060405250919050565b600067ffffffffffffffff821115611e9b57611e9a611fe1565b5b601f19601f8301169050602081019050919050565b600081519050919050565b600082825260208201905092915050565b600082825260208201905092915050565b6000611ee882611f0e565b9050919050565b60008115159050919050565b6000819050611f0982611ff4565b919050565b600073ffffffffffffffffffffffffffffffffffffffff82169050919050565b6000819050919050565b600060ff82169050919050565b6000611f5082611f69565b9050919050565b6000611f6282611efb565b9050919050565b6000611f7482611f7b565b9050919050565b6000611f8682611f0e565b9050919050565b6000611f9882611f38565b9050919050565b82818337600083830152505050565b60005b83811015611fcc578082015181840152602081019050611fb1565b83811115611fdb576000848401525b50505050565bfe5b6000601f19601f8301169050919050565b6006811061200557612004611fe1565b5b50565b61201181611edd565b811461201c57600080fd5b50565b61202881611f2e565b811461203357600080fd5b5056fe4f776e61626c653a206e6577206f776e657220697320746865207a65726f2061646472657373a264697066735822122086626253633898756f8409ea68f85a5b513575ebae2e0216f5ebbbcdf342e17a64736f6c63430007060033",
  "immutableReferences": {},
  "source": "// SPDX-License-Identifier: GPL-3.0\r\npragma solidity ^0.7.4;\r\npragma experimental ABIEncoderV2;\r\n\r\n/* import contrat ownable*/\r\nimport \"./Ownable.sol\";\r\n\r\n/**\r\n * @title Voting\r\n   @author Sandy,Julien,Stphane\r\n   @notice Contrat de vote, getsion par un superadmin\r\n */\r\n \r\n contract Voting is Ownable{\r\n  \r\n  uint8 public winningProposalId;\r\n  \r\n  uint8 proposalIds;\r\n  \r\n  struct Voter {\r\n    bool isRegistered;\r\n    address _address;\r\n    bool hasVoted;\r\n    uint votedProposalId;\r\n  }\r\n\r\n  struct Proposal {\r\n    uint8 id;\r\n    address owner;\r\n    string description;\r\n    uint voteCount;\r\n  }\r\n\r\n  mapping(address => Voter) public voters; // liste lectorale\r\n  \r\n  mapping(address => Voter) public whiteList;\r\n\r\n  mapping(uint => Proposal) public proposals;\r\n  \r\n\r\n  enum WorkflowStatus {\r\n        RegisteringVoters,\r\n        ProposalsRegistrationStarted,\r\n        ProposalsRegistrationEnded,\r\n        VotingSessionStarted,\r\n        VotingSessionEnded,\r\n        VotesTallied\r\n    }\r\n    \r\n    WorkflowStatus public status;\r\n    \r\n    \r\n    \r\n    ///@notice Events\r\n    event NewVotingSystem();\r\n    event VoterRegistered(address voterAddress);\r\n    event ProposalsRegistrationStarted();\r\n    event ProposalsRegistrationEnded();\r\n    event ProposalRegistered(uint proposalId);\r\n    event VotingSessionStarted();\r\n    event VotingSessionEnded();\r\n    event Voted (address voter, uint proposalId);\r\n    event VotesTallied();\r\n    event WorkflowStatusChange(WorkflowStatus previousStatus, WorkflowStatus\r\n    newStatus);\r\n    \r\n    constructor() {\r\n      emit NewVotingSystem();\r\n    }\r\n    \r\n    function getWinningProposal() public view returns(Proposal memory proposal) {\r\n        return proposals[winningProposalId];\r\n    }\r\n\r\n    ///@param _address  ajouter  la whitelist\r\n    function addVoter(address _address) public onlyOwner {\r\n      require(status == WorkflowStatus.RegisteringVoters);\r\n      Voter memory newVoter = Voter(true, _address, false, 0);\r\n      whiteList[_address] = newVoter;\r\n      emit VoterRegistered(_address);\r\n    }\r\n\r\n    ///@dev verifier le gas\r\n    function deleteVoter(address _address) public onlyOwner {\r\n      delete whiteList[_address];\r\n    }\r\n    \r\n    function startProposalRegistration() public onlyOwner {\r\n      status = WorkflowStatus.ProposalsRegistrationStarted;\r\n      emit ProposalsRegistrationStarted();\r\n    }\r\n\r\n    function endProposalRegistration() public onlyOwner {\r\n      status = WorkflowStatus.ProposalsRegistrationEnded;\r\n      emit ProposalsRegistrationEnded();\r\n    }\r\n\r\n    function startVotingSession() public onlyOwner {\r\n      status = WorkflowStatus.VotingSessionStarted;\r\n      emit VotingSessionStarted();\r\n    }\r\n\r\n    function endVotingSession() public onlyOwner {\r\n      status = WorkflowStatus.VotingSessionEnded;\r\n      emit VotingSessionEnded();\r\n    }\r\n   \r\n   \r\n\r\n  ///@dev Verification de la prsence de l'address dans la whitelist\r\n    modifier whiteListed() {\r\n      require(whiteList[msg.sender].isRegistered == true);\r\n      _;\r\n    }\r\n\r\n    ///@param _description est le nom de la proposition\r\n    function addProposal(string memory _description) public whiteListed {\r\n      //obligation d'tre dans le workflow correspondant \r\n      require(status == WorkflowStatus.ProposalsRegistrationStarted);\r\n      Proposal memory newProposal = Proposal(proposalIds, msg.sender, _description, 0);\r\n      proposals[proposalIds] = newProposal;\r\n      emit ProposalRegistered(proposalIds);\r\n      proposalIds++;\r\n    }\r\n\r\n    function deleteProposal(uint _id) public whiteListed {\r\n      require(proposals[_id].owner == msg.sender);\r\n      delete proposals[_id];\r\n    }\r\n\r\n    function vote(uint _id) public whiteListed {\r\n      require(status == WorkflowStatus.VotingSessionStarted);\r\n      require(whiteList[msg.sender].hasVoted == false);\r\n      whiteList[msg.sender].hasVoted = true;\r\n      proposals[_id].voteCount++;\r\n      emit Voted(msg.sender, _id);\r\n    }\r\n\r\n    function count() public onlyOwner {\r\n        require(status == WorkflowStatus.VotingSessionEnded);\r\n        uint8 id;\r\n        uint highestCount;\r\n\r\n        for (uint i = 0; i < proposalIds; i++) {\r\n          if (highestCount < proposals[i].voteCount) {\r\n             id = proposals[i].id;\r\n          }\r\n          ///@dev  voir les cas particuliers o plusieurs gagnants\r\n        }\r\n        winningProposalId = id; \r\n        emit VotesTallied();\r\n        status = WorkflowStatus.VotesTallied;\r\n    }\r\n\r\n\r\n    ///@return le statut en cours du vote\r\n    function getEnum() public view returns(WorkflowStatus){}\r\n }",
  "sourcePath": "C:/work_store/blockchain_work/voting/defiTest/contracts/Voting.sol",
  "compiler": {
    "name": "solc",
    "version": "0.7.6+commit.7338295f.Emscripten.clang"
  },
  "schemaVersion": "3.3.4",
  "updatedAt": "2021-03-04T13:04:26.678Z",
  "devdoc": {
    "author": "Sandy,Julien,Stphane",
    "kind": "dev",
    "methods": {
      "addProposal(string)": {
        "params": {
          "_description": "est le nom de la proposition"
        }
      },
      "addVoter(address)": {
        "params": {
          "_address": " ajouter  la whitelist"
        }
      },
      "deleteVoter(address)": {
        "details": "verifier le gas"
      },
      "getEnum()": {
        "returns": {
          "_0": "le statut en cours du vote"
        }
      },
      "owner()": {
        "details": "Returns the address of the current owner."
      },
      "renounceOwnership()": {
        "details": "Leaves the contract without owner. It will not be possible to call `onlyOwner` functions anymore. Can only be called by the current owner. NOTE: Renouncing ownership will leave the contract without an owner, thereby removing any functionality that is only available to the owner."
      },
      "transferOwnership(address)": {
        "details": "Transfers ownership of the contract to a new account (`newOwner`). Can only be called by the current owner."
      }
    },
    "title": "Voting",
    "version": 1
  },
  "userdoc": {
    "events": {
      "NewVotingSystem()": {
        "notice": "Events"
      }
    },
    "kind": "user",
    "methods": {},
    "notice": "Contrat de vote, getsion par un superadmin",
    "version": 1
  }
}